{
  "_format": "hh-sol-artifact-1",
  "contractName": "VeDelegateV2",
  "sourceName": "contracts/VOT3.sol",
  "abi": [
    {
      "inputs": [],
      "stateMutability": "nonpayable",
      "type": "constructor"
    },
    {
      "inputs": [
        {
          "internalType": "address",
          "name": "target",
          "type": "address"
        }
      ],
      "name": "AddressEmptyCode",
      "type": "error"
    },
    {
      "inputs": [],
      "name": "CheckpointUnorderedInsertion",
      "type": "error"
    },
    {
      "inputs": [],
      "name": "ECDSAInvalidSignature",
      "type": "error"
    },
    {
      "inputs": [
        {
          "internalType": "uint256",
          "name": "length",
          "type": "uint256"
        }
      ],
      "name": "ECDSAInvalidSignatureLength",
      "type": "error"
    },
    {
      "inputs": [
        {
          "internalType": "bytes32",
          "name": "s",
          "type": "bytes32"
        }
      ],
      "name": "ECDSAInvalidSignatureS",
      "type": "error"
    },
    {
      "inputs": [
        {
          "internalType": "address",
          "name": "implementation",
          "type": "address"
        }
      ],
      "name": "ERC1967InvalidImplementation",
      "type": "error"
    },
    {
      "inputs": [],
      "name": "ERC1967NonPayable",
      "type": "error"
    },
    {
      "inputs": [
        {
          "internalType": "uint256",
          "name": "increasedSupply",
          "type": "uint256"
        },
        {
          "internalType": "uint256",
          "name": "cap",
          "type": "uint256"
        }
      ],
      "name": "ERC20ExceededSafeSupply",
      "type": "error"
    },
    {
      "inputs": [
        {
          "internalType": "address",
          "name": "spender",
          "type": "address"
        },
        {
          "internalType": "uint256",
          "name": "allowance",
          "type": "uint256"
        },
        {
          "internalType": "uint256",
          "name": "needed",
          "type": "uint256"
        }
      ],
      "name": "ERC20InsufficientAllowance",
      "type": "error"
    },
    {
      "inputs": [
        {
          "internalType": "address",
          "name": "sender",
          "type": "address"
        },
        {
          "internalType": "uint256",
          "name": "balance",
          "type": "uint256"
        },
        {
          "internalType": "uint256",
          "name": "needed",
          "type": "uint256"
        }
      ],
      "name": "ERC20InsufficientBalance",
      "type": "error"
    },
    {
      "inputs": [
        {
          "internalType": "address",
          "name": "approver",
          "type": "address"
        }
      ],
      "name": "ERC20InvalidApprover",
      "type": "error"
    },
    {
      "inputs": [
        {
          "internalType": "address",
          "name": "receiver",
          "type": "address"
        }
      ],
      "name": "ERC20InvalidReceiver",
      "type": "error"
    },
    {
      "inputs": [
        {
          "internalType": "address",
          "name": "sender",
          "type": "address"
        }
      ],
      "name": "ERC20InvalidSender",
      "type": "error"
    },
    {
      "inputs": [
        {
          "internalType": "address",
          "name": "spender",
          "type": "address"
        }
      ],
      "name": "ERC20InvalidSpender",
      "type": "error"
    },
    {
      "inputs": [
        {
          "internalType": "uint256",
          "name": "deadline",
          "type": "uint256"
        }
      ],
      "name": "ERC2612ExpiredSignature",
      "type": "error"
    },
    {
      "inputs": [
        {
          "internalType": "address",
          "name": "signer",
          "type": "address"
        },
        {
          "internalType": "address",
          "name": "owner",
          "type": "address"
        }
      ],
      "name": "ERC2612InvalidSigner",
      "type": "error"
    },
    {
      "inputs": [
        {
          "internalType": "uint256",
          "name": "timepoint",
          "type": "uint256"
        },
        {
          "internalType": "uint48",
          "name": "clock",
          "type": "uint48"
        }
      ],
      "name": "ERC5805FutureLookup",
      "type": "error"
    },
    {
      "inputs": [],
      "name": "ERC6372InconsistentClock",
      "type": "error"
    },
    {
      "inputs": [],
      "name": "EnforcedPause",
      "type": "error"
    },
    {
      "inputs": [],
      "name": "ExpectedPause",
      "type": "error"
    },
    {
      "inputs": [],
      "name": "FailedInnerCall",
      "type": "error"
    },
    {
      "inputs": [
        {
          "internalType": "address",
          "name": "account",
          "type": "address"
        },
        {
          "internalType": "uint256",
          "name": "currentNonce",
          "type": "uint256"
        }
      ],
      "name": "InvalidAccountNonce",
      "type": "error"
    },
    {
      "inputs": [],
      "name": "InvalidInitialization",
      "type": "error"
    },
    {
      "inputs": [],
      "name": "NotInitializing",
      "type": "error"
    },
    {
      "inputs": [
        {
          "internalType": "address",
          "name": "owner",
          "type": "address"
        }
      ],
      "name": "OwnableInvalidOwner",
      "type": "error"
    },
    {
      "inputs": [
        {
          "internalType": "address",
          "name": "account",
          "type": "address"
        }
      ],
      "name": "OwnableUnauthorizedAccount",
      "type": "error"
    },
    {
      "inputs": [
        {
          "internalType": "uint8",
          "name": "bits",
          "type": "uint8"
        },
        {
          "internalType": "uint256",
          "name": "value",
          "type": "uint256"
        }
      ],
      "name": "SafeCastOverflowedUintDowncast",
      "type": "error"
    },
    {
      "inputs": [],
      "name": "UUPSUnauthorizedCallContext",
      "type": "error"
    },
    {
      "inputs": [
        {
          "internalType": "bytes32",
          "name": "slot",
          "type": "bytes32"
        }
      ],
      "name": "UUPSUnsupportedProxiableUUID",
      "type": "error"
    },
    {
      "inputs": [
        {
          "internalType": "uint256",
          "name": "expiry",
          "type": "uint256"
        }
      ],
      "name": "VotesExpiredSignature",
      "type": "error"
    },
    {
      "anonymous": false,
      "inputs": [
        {
          "indexed": true,
          "internalType": "address",
          "name": "owner",
          "type": "address"
        },
        {
          "indexed": true,
          "internalType": "address",
          "name": "spender",
          "type": "address"
        },
        {
          "indexed": false,
          "internalType": "uint256",
          "name": "value",
          "type": "uint256"
        }
      ],
      "name": "Approval",
      "type": "event"
    },
    {
      "anonymous": false,
      "inputs": [
        {
          "indexed": true,
          "internalType": "address",
          "name": "delegator",
          "type": "address"
        },
        {
          "indexed": true,
          "internalType": "address",
          "name": "fromDelegate",
          "type": "address"
        },
        {
          "indexed": true,
          "internalType": "address",
          "name": "toDelegate",
          "type": "address"
        }
      ],
      "name": "DelegateChanged",
      "type": "event"
    },
    {
      "anonymous": false,
      "inputs": [
        {
          "indexed": true,
          "internalType": "address",
          "name": "delegate",
          "type": "address"
        },
        {
          "indexed": false,
          "internalType": "uint256",
          "name": "previousVotes",
          "type": "uint256"
        },
        {
          "indexed": false,
          "internalType": "uint256",
          "name": "newVotes",
          "type": "uint256"
        }
      ],
      "name": "DelegateVotesChanged",
      "type": "event"
    },
    {
      "anonymous": false,
      "inputs": [],
      "name": "EIP712DomainChanged",
      "type": "event"
    },
    {
      "anonymous": false,
      "inputs": [
        {
          "indexed": false,
          "internalType": "uint64",
          "name": "version",
          "type": "uint64"
        }
      ],
      "name": "Initialized",
      "type": "event"
    },
    {
      "anonymous": false,
      "inputs": [
        {
          "indexed": true,
          "internalType": "address",
          "name": "previousOwner",
          "type": "address"
        },
        {
          "indexed": true,
          "internalType": "address",
          "name": "newOwner",
          "type": "address"
        }
      ],
      "name": "OwnershipTransferred",
      "type": "event"
    },
    {
      "anonymous": false,
      "inputs": [
        {
          "indexed": false,
          "internalType": "address",
          "name": "account",
          "type": "address"
        }
      ],
      "name": "Paused",
      "type": "event"
    },
    {
      "anonymous": false,
      "inputs": [
        {
          "indexed": true,
          "internalType": "address",
          "name": "from",
          "type": "address"
        },
        {
          "indexed": true,
          "internalType": "address",
          "name": "to",
          "type": "address"
        },
        {
          "indexed": false,
          "internalType": "uint256",
          "name": "value",
          "type": "uint256"
        }
      ],
      "name": "Transfer",
      "type": "event"
    },
    {
      "anonymous": false,
      "inputs": [
        {
          "indexed": false,
          "internalType": "address",
          "name": "account",
          "type": "address"
        }
      ],
      "name": "Unpaused",
      "type": "event"
    },
    {
      "anonymous": false,
      "inputs": [
        {
          "indexed": true,
          "internalType": "address",
          "name": "implementation",
          "type": "address"
        }
      ],
      "name": "Upgraded",
      "type": "event"
    },
    {
      "inputs": [],
      "name": "CLOCK_MODE",
      "outputs": [
        {
          "internalType": "string",
          "name": "",
          "type": "string"
        }
      ],
      "stateMutability": "view",
      "type": "function"
    },
    {
      "inputs": [],
      "name": "DOMAIN_SEPARATOR",
      "outputs": [
        {
          "internalType": "bytes32",
          "name": "",
          "type": "bytes32"
        }
      ],
      "stateMutability": "view",
      "type": "function"
    },
    {
      "inputs": [],
      "name": "UPGRADE_INTERFACE_VERSION",
      "outputs": [
        {
          "internalType": "string",
          "name": "",
          "type": "string"
        }
      ],
      "stateMutability": "view",
      "type": "function"
    },
    {
      "inputs": [
        {
          "internalType": "address",
          "name": "entity",
          "type": "address"
        }
      ],
      "name": "acceptEntityLink",
      "outputs": [],
      "stateMutability": "nonpayable",
      "type": "function"
    },
    {
      "inputs": [
        {
          "internalType": "address",
          "name": "owner",
          "type": "address"
        },
        {
          "internalType": "address",
          "name": "spender",
          "type": "address"
        }
      ],
      "name": "allowance",
      "outputs": [
        {
          "internalType": "uint256",
          "name": "",
          "type": "uint256"
        }
      ],
      "stateMutability": "view",
      "type": "function"
    },
    {
      "inputs": [
        {
          "internalType": "address",
          "name": "spender",
          "type": "address"
        },
        {
          "internalType": "uint256",
          "name": "value",
          "type": "uint256"
        }
      ],
      "name": "approve",
      "outputs": [
        {
          "internalType": "bool",
          "name": "",
          "type": "bool"
        }
      ],
      "stateMutability": "nonpayable",
      "type": "function"
    },
    {
      "inputs": [],
      "name": "b3tr",
      "outputs": [
        {
          "internalType": "contract IERC20",
          "name": "",
          "type": "address"
        }
      ],
      "stateMutability": "view",
      "type": "function"
    },
    {
      "inputs": [
        {
          "internalType": "address",
          "name": "account",
          "type": "address"
        }
      ],
      "name": "balanceOf",
      "outputs": [
        {
          "internalType": "uint256",
          "name": "",
          "type": "uint256"
        }
      ],
      "stateMutability": "view",
      "type": "function"
    },
    {
      "inputs": [
        {
          "internalType": "uint256",
          "name": "value",
          "type": "uint256"
        }
      ],
      "name": "burn",
      "outputs": [],
      "stateMutability": "nonpayable",
      "type": "function"
    },
    {
      "inputs": [
        {
          "internalType": "address",
          "name": "account",
          "type": "address"
        },
        {
          "internalType": "uint256",
          "name": "value",
          "type": "uint256"
        }
      ],
      "name": "burnFrom",
      "outputs": [],
      "stateMutability": "nonpayable",
      "type": "function"
    },
    {
      "inputs": [
        {
          "internalType": "uint256",
          "name": "roundId",
          "type": "uint256"
        }
      ],
      "name": "checkReward",
      "outputs": [
        {
          "internalType": "uint256",
          "name": "",
          "type": "uint256"
        }
      ],
      "stateMutability": "view",
      "type": "function"
    },
    {
      "inputs": [
        {
          "internalType": "uint256",
          "name": "roundId",
          "type": "uint256"
        },
        {
          "internalType": "address",
          "name": "user",
          "type": "address"
        }
      ],
      "name": "checkUserReward",
      "outputs": [
        {
          "internalType": "uint256",
          "name": "",
          "type": "uint256"
        }
      ],
      "stateMutability": "view",
      "type": "function"
    },
    {
      "inputs": [
        {
          "internalType": "address",
          "name": "account",
          "type": "address"
        },
        {
          "internalType": "uint32",
          "name": "pos",
          "type": "uint32"
        }
      ],
      "name": "checkpoints",
      "outputs": [
        {
          "components": [
            {
              "internalType": "uint48",
              "name": "_key",
              "type": "uint48"
            },
            {
              "internalType": "uint208",
              "name": "_value",
              "type": "uint208"
            }
          ],
          "internalType": "struct Checkpoints.Checkpoint208",
          "name": "",
          "type": "tuple"
        }
      ],
      "stateMutability": "view",
      "type": "function"
    },
    {
      "inputs": [
        {
          "internalType": "uint256",
          "name": "roundId",
          "type": "uint256"
        },
        {
          "internalType": "address",
          "name": "user",
          "type": "address"
        }
      ],
      "name": "checkuserClaimed",
      "outputs": [
        {
          "internalType": "bool",
          "name": "",
          "type": "bool"
        }
      ],
      "stateMutability": "view",
      "type": "function"
    },
    {
      "inputs": [
        {
          "internalType": "uint256",
          "name": "roundId",
          "type": "uint256"
        }
      ],
      "name": "claimReward",
      "outputs": [],
      "stateMutability": "nonpayable",
      "type": "function"
    },
    {
      "inputs": [
        {
          "internalType": "uint256",
          "name": "",
          "type": "uint256"
        }
      ],
      "name": "claimed",
      "outputs": [
        {
          "internalType": "bool",
          "name": "",
          "type": "bool"
        }
      ],
      "stateMutability": "view",
      "type": "function"
    },
    {
      "inputs": [],
      "name": "clock",
      "outputs": [
        {
          "internalType": "uint48",
          "name": "",
          "type": "uint48"
        }
      ],
      "stateMutability": "view",
      "type": "function"
    },
    {
      "inputs": [],
      "name": "decimals",
      "outputs": [
        {
          "internalType": "uint8",
          "name": "",
          "type": "uint8"
        }
      ],
      "stateMutability": "view",
      "type": "function"
    },
    {
      "inputs": [
        {
          "internalType": "address",
          "name": "delegatee",
          "type": "address"
        }
      ],
      "name": "delegate",
      "outputs": [],
      "stateMutability": "nonpayable",
      "type": "function"
    },
    {
      "inputs": [
        {
          "internalType": "address",
          "name": "delegatee",
          "type": "address"
        },
        {
          "internalType": "uint256",
          "name": "nonce",
          "type": "uint256"
        },
        {
          "internalType": "uint256",
          "name": "expiry",
          "type": "uint256"
        },
        {
          "internalType": "uint8",
          "name": "v",
          "type": "uint8"
        },
        {
          "internalType": "bytes32",
          "name": "r",
          "type": "bytes32"
        },
        {
          "internalType": "bytes32",
          "name": "s",
          "type": "bytes32"
        }
      ],
      "name": "delegateBySig",
      "outputs": [],
      "stateMutability": "nonpayable",
      "type": "function"
    },
    {
      "inputs": [
        {
          "internalType": "address",
          "name": "account",
          "type": "address"
        }
      ],
      "name": "delegates",
      "outputs": [
        {
          "internalType": "address",
          "name": "",
          "type": "address"
        }
      ],
      "stateMutability": "view",
      "type": "function"
    },
    {
      "inputs": [
        {
          "internalType": "uint256",
          "name": "amount",
          "type": "uint256"
        }
      ],
      "name": "depositB3TR",
      "outputs": [],
      "stateMutability": "nonpayable",
      "type": "function"
    },
    {
      "inputs": [
        {
          "internalType": "uint256",
          "name": "amount",
          "type": "uint256"
        }
      ],
      "name": "depositVOT3",
      "outputs": [],
      "stateMutability": "nonpayable",
      "type": "function"
    },
    {
      "inputs": [],
      "name": "eip712Domain",
      "outputs": [
        {
          "internalType": "bytes1",
          "name": "fields",
          "type": "bytes1"
        },
        {
          "internalType": "string",
          "name": "name",
          "type": "string"
        },
        {
          "internalType": "string",
          "name": "version",
          "type": "string"
        },
        {
          "internalType": "uint256",
          "name": "chainId",
          "type": "uint256"
        },
        {
          "internalType": "address",
          "name": "verifyingContract",
          "type": "address"
        },
        {
          "internalType": "bytes32",
          "name": "salt",
          "type": "bytes32"
        },
        {
          "internalType": "uint256[]",
          "name": "extensions",
          "type": "uint256[]"
        }
      ],
      "stateMutability": "view",
      "type": "function"
    },
    {
      "inputs": [
        {
          "internalType": "uint256",
          "name": "timepoint",
          "type": "uint256"
        }
      ],
      "name": "getPastTotalSupply",
      "outputs": [
        {
          "internalType": "uint256",
          "name": "",
          "type": "uint256"
        }
      ],
      "stateMutability": "view",
      "type": "function"
    },
    {
      "inputs": [
        {
          "internalType": "address",
          "name": "account",
          "type": "address"
        },
        {
          "internalType": "uint256",
          "name": "timepoint",
          "type": "uint256"
        }
      ],
      "name": "getPastVotes",
      "outputs": [
        {
          "internalType": "uint256",
          "name": "",
          "type": "uint256"
        }
      ],
      "stateMutability": "view",
      "type": "function"
    },
    {
      "inputs": [
        {
          "internalType": "uint256",
          "name": "roundId",
          "type": "uint256"
        }
      ],
      "name": "getTotalVotes",
      "outputs": [
        {
          "internalType": "uint256",
          "name": "",
          "type": "uint256"
        }
      ],
      "stateMutability": "view",
      "type": "function"
    },
    {
      "inputs": [
        {
          "internalType": "address",
          "name": "account",
          "type": "address"
        },
        {
          "internalType": "uint256",
          "name": "roundId",
          "type": "uint256"
        }
      ],
      "name": "getUserVotes",
      "outputs": [
        {
          "internalType": "uint256",
          "name": "",
          "type": "uint256"
        }
      ],
      "stateMutability": "view",
      "type": "function"
    },
    {
      "inputs": [
        {
          "internalType": "address",
          "name": "account",
          "type": "address"
        }
      ],
      "name": "getVotes",
      "outputs": [
        {
          "internalType": "uint256",
          "name": "",
          "type": "uint256"
        }
      ],
      "stateMutability": "view",
      "type": "function"
    },
    {
      "inputs": [],
      "name": "gov",
      "outputs": [
        {
          "internalType": "contract GOV",
          "name": "",
          "type": "address"
        }
      ],
      "stateMutability": "view",
      "type": "function"
    },
    {
      "inputs": [
        {
          "internalType": "address",
          "name": "_owner",
          "type": "address"
        },
        {
          "internalType": "address",
          "name": "_vot3",
          "type": "address"
        },
        {
          "internalType": "address",
          "name": "_b3tr",
          "type": "address"
        },
        {
          "internalType": "address",
          "name": "_gov",
          "type": "address"
        },
        {
          "internalType": "address",
          "name": "_reward",
          "type": "address"
        }
      ],
      "name": "initialize",
      "outputs": [],
      "stateMutability": "nonpayable",
      "type": "function"
    },
    {
      "inputs": [
        {
          "internalType": "address",
          "name": "_passport",
          "type": "address"
        }
      ],
      "name": "linkPassport",
      "outputs": [],
      "stateMutability": "nonpayable",
      "type": "function"
    },
    {
      "inputs": [],
      "name": "name",
      "outputs": [
        {
          "internalType": "string",
          "name": "",
          "type": "string"
        }
      ],
      "stateMutability": "view",
      "type": "function"
    },
    {
      "inputs": [
        {
          "internalType": "address",
          "name": "owner",
          "type": "address"
        }
      ],
      "name": "nonces",
      "outputs": [
        {
          "internalType": "uint256",
          "name": "",
          "type": "uint256"
        }
      ],
      "stateMutability": "view",
      "type": "function"
    },
    {
      "inputs": [
        {
          "internalType": "address",
          "name": "account",
          "type": "address"
        }
      ],
      "name": "numCheckpoints",
      "outputs": [
        {
          "internalType": "uint32",
          "name": "",
          "type": "uint32"
        }
      ],
      "stateMutability": "view",
      "type": "function"
    },
    {
      "inputs": [],
      "name": "owner",
      "outputs": [
        {
          "internalType": "address",
          "name": "",
          "type": "address"
        }
      ],
      "stateMutability": "view",
      "type": "function"
    },
    {
      "inputs": [],
      "name": "pause",
      "outputs": [],
      "stateMutability": "nonpayable",
      "type": "function"
    },
    {
      "inputs": [],
      "name": "paused",
      "outputs": [
        {
          "internalType": "bool",
          "name": "",
          "type": "bool"
        }
      ],
      "stateMutability": "view",
      "type": "function"
    },
    {
      "inputs": [
        {
          "internalType": "address",
          "name": "owner",
          "type": "address"
        },
        {
          "internalType": "address",
          "name": "spender",
          "type": "address"
        },
        {
          "internalType": "uint256",
          "name": "value",
          "type": "uint256"
        },
        {
          "internalType": "uint256",
          "name": "deadline",
          "type": "uint256"
        },
        {
          "internalType": "uint8",
          "name": "v",
          "type": "uint8"
        },
        {
          "internalType": "bytes32",
          "name": "r",
          "type": "bytes32"
        },
        {
          "internalType": "bytes32",
          "name": "s",
          "type": "bytes32"
        }
      ],
      "name": "permit",
      "outputs": [],
      "stateMutability": "nonpayable",
      "type": "function"
    },
    {
      "inputs": [],
      "name": "proxiableUUID",
      "outputs": [
        {
          "internalType": "bytes32",
          "name": "",
          "type": "bytes32"
        }
      ],
      "stateMutability": "view",
      "type": "function"
    },
    {
      "inputs": [],
      "name": "renounceOwnership",
      "outputs": [],
      "stateMutability": "nonpayable",
      "type": "function"
    },
    {
      "inputs": [],
      "name": "reward",
      "outputs": [
        {
          "internalType": "contract REWARD",
          "name": "",
          "type": "address"
        }
      ],
      "stateMutability": "view",
      "type": "function"
    },
    {
      "inputs": [
        {
          "internalType": "uint256",
          "name": "",
          "type": "uint256"
        }
      ],
      "name": "rewardTotalAmount",
      "outputs": [
        {
          "internalType": "uint256",
          "name": "",
          "type": "uint256"
        }
      ],
      "stateMutability": "view",
      "type": "function"
    },
    {
      "inputs": [
        {
          "internalType": "address",
          "name": "_b3tr",
          "type": "address"
        }
      ],
      "name": "setB3TR",
      "outputs": [],
      "stateMutability": "nonpayable",
      "type": "function"
    },
    {
      "inputs": [
        {
          "internalType": "address",
          "name": "_gov",
          "type": "address"
        }
      ],
      "name": "setGOV",
      "outputs": [],
      "stateMutability": "nonpayable",
      "type": "function"
    },
    {
      "inputs": [
        {
          "internalType": "address",
          "name": "_reward",
          "type": "address"
        }
      ],
      "name": "setREWARD",
      "outputs": [],
      "stateMutability": "nonpayable",
      "type": "function"
    },
    {
      "inputs": [
        {
          "internalType": "address",
          "name": "_vot3",
          "type": "address"
        }
      ],
      "name": "setVOT3",
      "outputs": [],
      "stateMutability": "nonpayable",
      "type": "function"
    },
    {
      "inputs": [
        {
          "internalType": "address",
          "name": "_vpassport",
          "type": "address"
        }
      ],
      "name": "setVPASSPORT",
      "outputs": [],
      "stateMutability": "nonpayable",
      "type": "function"
    },
    {
      "inputs": [],
      "name": "symbol",
      "outputs": [
        {
          "internalType": "string",
          "name": "",
          "type": "string"
        }
      ],
      "stateMutability": "view",
      "type": "function"
    },
    {
      "inputs": [],
      "name": "totalSupply",
      "outputs": [
        {
          "internalType": "uint256",
          "name": "",
          "type": "uint256"
        }
      ],
      "stateMutability": "view",
      "type": "function"
    },
    {
      "inputs": [
        {
          "internalType": "address",
          "name": "to",
          "type": "address"
        },
        {
          "internalType": "uint256",
          "name": "value",
          "type": "uint256"
        }
      ],
      "name": "transfer",
      "outputs": [
        {
          "internalType": "bool",
          "name": "",
          "type": "bool"
        }
      ],
      "stateMutability": "nonpayable",
      "type": "function"
    },
    {
      "inputs": [
        {
          "internalType": "address",
          "name": "from",
          "type": "address"
        },
        {
          "internalType": "address",
          "name": "to",
          "type": "address"
        },
        {
          "internalType": "uint256",
          "name": "value",
          "type": "uint256"
        }
      ],
      "name": "transferFrom",
      "outputs": [
        {
          "internalType": "bool",
          "name": "",
          "type": "bool"
        }
      ],
      "stateMutability": "nonpayable",
      "type": "function"
    },
    {
      "inputs": [
        {
          "internalType": "address",
          "name": "newOwner",
          "type": "address"
        }
      ],
      "name": "transferOwnership",
      "outputs": [],
      "stateMutability": "nonpayable",
      "type": "function"
    },
    {
      "inputs": [],
      "name": "unpause",
      "outputs": [],
      "stateMutability": "nonpayable",
      "type": "function"
    },
    {
      "inputs": [
        {
          "internalType": "address",
          "name": "newImplementation",
          "type": "address"
        },
        {
          "internalType": "bytes",
          "name": "data",
          "type": "bytes"
        }
      ],
      "name": "upgradeToAndCall",
      "outputs": [],
      "stateMutability": "payable",
      "type": "function"
    },
    {
      "inputs": [
        {
          "internalType": "uint256",
          "name": "",
          "type": "uint256"
        },
        {
          "internalType": "address",
          "name": "",
          "type": "address"
        }
      ],
      "name": "userClaimed",
      "outputs": [
        {
          "internalType": "bool",
          "name": "",
          "type": "bool"
        }
      ],
      "stateMutability": "view",
      "type": "function"
    },
    {
      "inputs": [],
      "name": "vot3",
      "outputs": [
        {
          "internalType": "contract VOT3",
          "name": "",
          "type": "address"
        }
      ],
      "stateMutability": "view",
      "type": "function"
    },
    {
      "inputs": [
        {
          "internalType": "uint256",
          "name": "roundId",
          "type": "uint256"
        },
        {
          "internalType": "bytes32[]",
          "name": "appIds",
          "type": "bytes32[]"
        },
        {
          "internalType": "uint256[]",
          "name": "votesPower",
          "type": "uint256[]"
        }
      ],
      "name": "vote",
      "outputs": [],
      "stateMutability": "nonpayable",
      "type": "function"
    },
    {
      "inputs": [],
      "name": "vpassport",
      "outputs": [
        {
          "internalType": "contract VPASSPORT",
          "name": "",
          "type": "address"
        }
      ],
      "stateMutability": "view",
      "type": "function"
    },
    {
      "inputs": [
        {
          "internalType": "uint256",
          "name": "amount",
          "type": "uint256"
        }
      ],
      "name": "withdraw",
      "outputs": [],
      "stateMutability": "nonpayable",
      "type": "function"
    },
    {
      "inputs": [
        {
          "internalType": "uint256",
          "name": "amount",
          "type": "uint256"
        }
      ],
      "name": "withdrawB3TR",
      "outputs": [],
      "stateMutability": "nonpayable",
      "type": "function"
    }
  ],
  "bytecode": "0x60a06040523060805234801561001457600080fd5b5061001d610022565b6100d4565b7ff0c57e16840df040f15088dc2f81fe391c3923bec73e23a9662efc9c229c6a00805468010000000000000000900460ff16156100725760405163f92ee8a960e01b815260040160405180910390fd5b80546001600160401b03908116146100d15780546001600160401b0319166001600160401b0390811782556040519081527fc7f505b2f371ae2175ee4913f4499e1f2633a7b5936321eed1cdaeb6115181d29060200160405180910390a15b50565b6080516144dd6100fd600039600081816123b2015281816123db015261251c01526144dd6000f3fe6080604052600436106103a25760003560e01c806370a08231116101e7578063a9059cbb1161010d578063dbe7e3bd116100a0578063ec3e0a3b1161006f578063ec3e0a3b14610b50578063f039d57e14610b96578063f1127ed814610bb6578063f2fde38b14610c0257600080fd5b8063dbe7e3bd14610ac0578063dc11b53714610af0578063dd62ed3e14610b10578063e469899114610b3057600080fd5b8063baa32789116100dc578063baa3278914610a40578063c3cda52014610a60578063d1143f3a14610a80578063d505accf14610aa057600080fd5b8063a9059cbb146109af578063aa690e92146109cf578063ad3cb1cc146109ef578063ae169a5014610a2057600080fd5b806384b5ba951161018557806395d89b411161015457806395d89b411461092d5780639ab24eb0146109425780639aea843d14610962578063a3cf7fad1461098257600080fd5b806384b5ba95146108845780638da5cb5b146108a45780638e539e8c146108e157806391ddadf41461090157600080fd5b806379cc6790116101c157806379cc6790146108075780637ecebe00146108275780638456cb591461084757806384b0196e1461085c57600080fd5b806370a08231146107b2578063715018a6146107d257806377166067146107e757600080fd5b80633a46b1a8116102cc578063582a486a1161026a5780635c975abb116102395780635c975abb14610718578063614e97c91461073d5780636a7ff7961461075d5780636fcfff451461077d57600080fd5b8063582a486a14610698578063587cde1e146106b85780635a63218a146106d85780635c19a95c146106f857600080fd5b806342966c68116102a657806342966c681461063b5780634bf5d7e91461065b5780634f1ef2861461067057806352d1902d1461068357600080fd5b80633a46b1a8146105cb5780633beb9842146105eb5780633f4ba83a1461062657600080fd5b8063228cb733116103445780632e1a7d4d116103135780632e1a7d4d1461055a5780632f3454f31461057a578063313ce5671461059a5780633644e515146105b657600080fd5b8063228cb733146104da57806323b872dd146104fa5780632ce35e111461051a5780632df458151461053a57600080fd5b80630c295755116103805780630c2957551461042457806312d43a51146104445780631459457a1461047c57806318160ddd1461049c57600080fd5b80630441c385146103a757806306fdde03146103c9578063095ea7b3146103f4575b600080fd5b3480156103b357600080fd5b506103c76103c2366004613b5d565b610c22565b005b3480156103d557600080fd5b506103de610c4c565b6040516103eb9190613bc8565b60405180910390f35b34801561040057600080fd5b5061041461040f366004613bdb565b610cf5565b60405190151581526020016103eb565b34801561043057600080fd5b506103c761043f366004613cdd565b610d0f565b34801561045057600080fd5b50600154610464906001600160a01b031681565b6040516001600160a01b0390911681526020016103eb565b34801561048857600080fd5b506103c7610497366004613da8565b610d82565b3480156104a857600080fd5b507f52c63247e1f47db19d5ce0460030c497f067ca4cebf71ba98eeadabe20bace02545b6040519081526020016103eb565b3480156104e657600080fd5b50600254610464906001600160a01b031681565b34801561050657600080fd5b50610414610515366004613e0d565b610f7c565b34801561052657600080fd5b506104cc610535366004613e4a565b610fa2565b34801561054657600080fd5b506104cc610555366004613e63565b61101f565b34801561056657600080fd5b506103c7610575366004613e4a565b611134565b34801561058657600080fd5b506103c7610595366004613e4a565b611271565b3480156105a657600080fd5b50604051601281526020016103eb565b3480156105c257600080fd5b506104cc6112f2565b3480156105d757600080fd5b506104cc6105e6366004613bdb565b611301565b3480156105f757600080fd5b50610414610606366004613e63565b600560209081526000928352604080842090915290825290205460ff1681565b34801561063257600080fd5b506103c7611394565b34801561064757600080fd5b506103c7610656366004613e4a565b6113a6565b34801561066757600080fd5b506103de6113b3565b6103c761067e366004613e8f565b61142b565b34801561068f57600080fd5b506104cc611446565b3480156106a457600080fd5b50600354610464906001600160a01b031681565b3480156106c457600080fd5b506104646106d3366004613b5d565b611463565b3480156106e457600080fd5b506103c76106f3366004613b5d565b61148e565b34801561070457600080fd5b506103c7610713366004613b5d565b6114b8565b34801561072457600080fd5b506000805160206144888339815191525460ff16610414565b34801561074957600080fd5b506103c7610758366004613b5d565b6114c3565b34801561076957600080fd5b50600054610464906001600160a01b031681565b34801561078957600080fd5b5061079d610798366004613b5d565b6114ed565b60405163ffffffff90911681526020016103eb565b3480156107be57600080fd5b506104cc6107cd366004613b5d565b6114f8565b3480156107de57600080fd5b506103c761152b565b3480156107f357600080fd5b506104cc610802366004613bdb565b61153d565b34801561081357600080fd5b506103c7610822366004613bdb565b6115c3565b34801561083357600080fd5b506104cc610842366004613b5d565b6115d8565b34801561085357600080fd5b506103c76115e3565b34801561086857600080fd5b506108716115f3565b6040516103eb9796959493929190613f76565b34801561089057600080fd5b506103c761089f366004613b5d565b61169f565b3480156108b057600080fd5b507f9016d09d72d40fdae2fd8ceac6b6234c7706214fd39c1cd1e609a0528c199300546001600160a01b0316610464565b3480156108ed57600080fd5b506104cc6108fc366004613e4a565b6116d9565b34801561090d57600080fd5b50610916611755565b60405165ffffffffffff90911681526020016103eb565b34801561093957600080fd5b506103de61175f565b34801561094e57600080fd5b506104cc61095d366004613b5d565b61179e565b34801561096e57600080fd5b506103c761097d366004613e4a565b6117fe565b34801561098e57600080fd5b506104cc61099d366004613e4a565b60076020526000908152604090205481565b3480156109bb57600080fd5b506104146109ca366004613bdb565b6118c5565b3480156109db57600080fd5b506103c76109ea366004613b5d565b6118d3565b3480156109fb57600080fd5b506103de604051806040016040528060058152602001640352e302e360dc1b81525081565b348015610a2c57600080fd5b506103c7610a3b366004613e4a565b6118fd565b348015610a4c57600080fd5b50600654610464906001600160a01b031681565b348015610a6c57600080fd5b506103c7610a7b366004613ff7565b611bdd565b348015610a8c57600080fd5b506103c7610a9b366004613b5d565b611c91565b348015610aac57600080fd5b506103c7610abb36600461404f565b611ccb565b348015610acc57600080fd5b50610414610adb366004613e4a565b60046020526000908152604090205460ff1681565b348015610afc57600080fd5b506103c7610b0b366004613b5d565b611ddb565b348015610b1c57600080fd5b506104cc610b2b3660046140ba565b611e05565b348015610b3c57600080fd5b506104cc610b4b366004613e4a565b611e4f565b348015610b5c57600080fd5b50610414610b6b366004613e63565b60009182526005602090815260408084206001600160a01b0393909316845291905290205460ff1690565b348015610ba257600080fd5b506103c7610bb1366004613e4a565b611f60565b348015610bc257600080fd5b50610bd6610bd13660046140e4565b611fee565b60408051825165ffffffffffff1681526020928301516001600160d01b031692810192909252016103eb565b348015610c0e57600080fd5b506103c7610c1d366004613b5d565b61200c565b610c2a612047565b600080546001600160a01b0319166001600160a01b0392909216919091179055565b606060006000805160206144288339815191525b9050806003018054610c7190614124565b80601f0160208091040260200160405190810160405280929190818152602001828054610c9d90614124565b8015610cea5780601f10610cbf57610100808354040283529160200191610cea565b820191906000526020600020905b815481529060010190602001808311610ccd57829003601f168201915b505050505091505090565b600033610d038185856120a2565b60019150505b92915050565b610d17612047565b6001546040516353ed639960e01b81526001600160a01b03909116906353ed639990610d4b9086908690869060040161415e565b600060405180830381600087803b158015610d6557600080fd5b505af1158015610d79573d6000803e3d6000fd5b50505050505050565b7ff0c57e16840df040f15088dc2f81fe391c3923bec73e23a9662efc9c229c6a008054600160401b810460ff16159067ffffffffffffffff16600081158015610dc85750825b905060008267ffffffffffffffff166001148015610de55750303b155b905081158015610df3575080155b15610e115760405163f92ee8a960e01b815260040160405180910390fd5b845467ffffffffffffffff191660011785558315610e3b57845460ff60401b1916600160401b1785555b610e886040518060400160405280600e81526020016d7644656c656761746564564f543360901b8152506040518060400160405280600581526020016476564f543360d81b8152506120b4565b610e906120c6565b610e986120ce565b610ea18a6120de565b610ed06040518060400160405280600e81526020016d7644656c656761746564564f543360901b8152506120ef565b610ed86120c6565b610ee06120c6565b600080546001600160a01b03808c166001600160a01b031992831617909255600180548a84169083161790556002805489841690831617905560038054928b16929091169190911790558315610f7057845460ff60401b19168555604051600181527fc7f505b2f371ae2175ee4913f4499e1f2633a7b5936321eed1cdaeb6115181d29060200160405180910390a15b50505050505050505050565b600033610f8a85828561211a565b610f95858585612180565b60019150505b9392505050565b6001546040516368377f6d60e11b81526004810183905260009182916001600160a01b039091169063d06efeda90602401602060405180830381865afa158015610ff0573d6000803e3d6000fd5b505050506040513d601f19601f8201168201806040525081019061101491906141b5565b9050610f9b816116d9565b6000828152600760205260408120548082036110a957600254604051628f33d760e01b8152600481018690523060248201526001600160a01b0390911690628f33d790604401602060405180830381865afa158015611082573d6000803e3d6000fd5b505050506040513d601f19601f820116820180604052508101906110a691906141b5565b90505b806000036110bb576000915050610d09565b60006110c685610fa2565b9050806000036110db57600092505050610d09565b60006110e7858761153d565b9050806000036110fd5760009350505050610d09565b600061110a8360646141e4565b61111485846141e4565b61111f90605a6141e4565b6111299190614211565b979650505050505050565b61113c6121df565b80611146336114f8565b10156111905760405162461bcd60e51b8152602060048201526014602482015273496e73756666696369656e742062616c616e636560601b60448201526064015b60405180910390fd5b61119a3382612210565b60005460405163a9059cbb60e01b8152336004820152602481018390526001600160a01b039091169063a9059cbb906044016020604051808303816000875af11580156111eb573d6000803e3d6000fd5b505050506040513d601f19601f8201168201806040525081019061120f9190614233565b506000546040516317066a5760e21b81523060048201526001600160a01b0390911690635c19a95c906024015b600060405180830381600087803b15801561125657600080fd5b505af115801561126a573d6000803e3d6000fd5b5050505050565b611279612047565b60035460405163a9059cbb60e01b8152336004820152602481018390526001600160a01b039091169063a9059cbb906044016020604051808303816000875af11580156112ca573d6000803e3d6000fd5b505050506040513d601f19601f820116820180604052508101906112ee9190614233565b5050565b60006112fc612246565b905090565b60006000805160206144088339815191528161131b611755565b90508065ffffffffffff16841061135657604051637669fc0f60e11b81526004810185905265ffffffffffff82166024820152604401611187565b61138261136285612250565b6001600160a01b0387166000908152600185016020526040902090612287565b6001600160d01b031695945050505050565b61139c612047565b6113a461233c565b565b6113b03382612210565b50565b60606113bd61239c565b65ffffffffffff166113cd611755565b65ffffffffffff16146113f3576040516301bfc1c560e61b815260040160405180910390fd5b5060408051808201909152601d81527f6d6f64653d626c6f636b6e756d6265722666726f6d3d64656661756c74000000602082015290565b6114336123a7565b61143c8261244c565b6112ee8282612454565b6000611450612511565b5060008051602061446883398151915290565b6001600160a01b03908116600090815260008051602061440883398151915260205260409020541690565b611496612047565b600680546001600160a01b0319166001600160a01b0392909216919091179055565b336112ee818361255a565b6114cb612047565b600280546001600160a01b0319166001600160a01b0392909216919091179055565b6000610d09826125e4565b6000806000805160206144288339815191525b6001600160a01b0390931660009081526020939093525050604090205490565b611533612047565b6113a46000612635565b6001546040516368377f6d60e11b81526004810183905260009182916001600160a01b039091169063d06efeda90602401602060405180830381865afa15801561158b573d6000803e3d6000fd5b505050506040513d601f19601f820116820180604052508101906115af91906141b5565b90506115bb8482611301565b949350505050565b6115ce82338361211a565b6112ee8282612210565b6000610d09826126a6565b6115eb612047565b6113a46126b1565b60006060808280808381600080516020614448833981519152805490915015801561162057506001810154155b6116645760405162461bcd60e51b81526020600482015260156024820152741152540dcc4c8e88155b9a5b9a5d1a585b1a5e9959605a1b6044820152606401611187565b61166c6126fa565b611674612739565b60408051600080825260208201909252600f60f81b9c939b5091995046985030975095509350915050565b6116a7612047565b60065460405163382c8f6d60e21b81526001600160a01b0383811660048301529091169063e0b23db49060240161123c565b6000600080516020614408833981519152816116f3611755565b90508065ffffffffffff16841061172e57604051637669fc0f60e11b81526004810185905265ffffffffffff82166024820152604401611187565b61174461173a85612250565b6002840190612287565b6001600160d01b0316949350505050565b60006112fc61239c565b7f52c63247e1f47db19d5ce0460030c497f067ca4cebf71ba98eeadabe20bace04805460609160008051602061442883398151915291610c7190614124565b6001600160a01b03811660009081527fe8b26c30fad74198956032a3533d903385d56dd795af560196f9c78d4af40d0160205260408120600080516020614408833981519152906117ee90612751565b6001600160d01b03169392505050565b6118066121df565b6003546040516323b872dd60e01b8152336004820152306024820152604481018390526001600160a01b03909116906323b872dd906064016020604051808303816000875af115801561185d573d6000803e3d6000fd5b505050506040513d601f19601f820116820180604052508101906118819190614233565b5061188b8161278a565b6118953382612835565b6000546040516317066a5760e21b81523060048201526001600160a01b0390911690635c19a95c9060240161123c565b600033610d03818585612180565b6118db612047565b600180546001600160a01b0319166001600160a01b0392909216919091179055565b6119056121df565b60008181526004602052604090205460ff16611924576119248161286b565b600081815260056020908152604080832033845290915290205460ff161561198e5760405162461bcd60e51b815260206004820152601e60248201527f52657761726420616c726561647920636c61696d6564206279207573657200006044820152606401611187565b6000818152600760205260409020546119df5760405162461bcd60e51b81526020600482015260136024820152724e6f2072657761726420617661696c61626c6560681b6044820152606401611187565b600081815260076020526040812054906119f883610fa2565b90506000611a06338561153d565b90506000611a158360646141e4565b611a1f85846141e4565b611a2a90605a6141e4565b611a349190614211565b6003546040516370a0823160e01b815230600482015291925082916001600160a01b03909116906370a0823190602401602060405180830381865afa158015611a81573d6000803e3d6000fd5b505050506040513d601f19601f82011682018060405250810190611aa591906141b5565b1015611ae95760405162461bcd60e51b8152602060048201526013602482015272125b9cdd59999a58da595b9d081c995dd85c99606a1b6044820152606401611187565b60008111611b395760405162461bcd60e51b815260206004820152601c60248201527f4e6f2072657761726420617661696c61626c6520666f722075736572000000006044820152606401611187565b600085815260056020908152604080832033808552925291829020805460ff19166001179055600354915163a9059cbb60e01b81526004810191909152602481018390526001600160a01b039091169063a9059cbb906044016020604051808303816000875af1158015611bb1573d6000803e3d6000fd5b505050506040513d601f19601f82011682018060405250810190611bd59190614233565b505050505050565b83421115611c0157604051632341d78760e11b815260048101859052602401611187565b604080517fe48329057bfd03d55e49b547132e39cffd9c1820ad7b9d4c5307691425d15adf60208201526001600160a01b038816918101919091526060810186905260808101859052600090611c7b90611c739060a00160405160208183030381529060405280519060200120612a1b565b858585612a48565b9050611c878187612a76565b610d79818861255a565b611c99612047565b60065460405163688a1f9d60e11b81526001600160a01b0383811660048301529091169063d1143f3a9060240161123c565b83421115611cef5760405163313c898160e11b815260048101859052602401611187565b60007f6e71edae12b1b97f4d1f60370fef10105fa2faae0126114a169c64845d6126c9888888611d1e8c612ab5565b6040805160208101969096526001600160a01b0394851690860152929091166060840152608083015260a082015260c0810186905260e0016040516020818303038152906040528051906020012090506000611d7982612a1b565b90506000611d8982878787612a48565b9050896001600160a01b0316816001600160a01b031614611dd0576040516325c0072360e11b81526001600160a01b0380831660048301528b166024820152604401611187565b610f708a8a8a6120a2565b611de3612047565b600380546001600160a01b0319166001600160a01b0392909216919091179055565b6001600160a01b0391821660009081527f52c63247e1f47db19d5ce0460030c497f067ca4cebf71ba98eeadabe20bace016020908152604080832093909416825291909152205490565b600081815260076020526040812054808203611ed957600254604051628f33d760e01b8152600481018590523060248201526001600160a01b0390911690628f33d790604401602060405180830381865afa158015611eb2573d6000803e3d6000fd5b505050506040513d601f19601f82011682018060405250810190611ed691906141b5565b90505b80600003611eea5750600092915050565b6000611ef584610fa2565b905080600003611f09575060009392505050565b6000611f15338661153d565b905080600003611f2a57506000949350505050565b6000611f378360646141e4565b611f4185846141e4565b611f4c90605a6141e4565b611f569190614211565b9695505050505050565b611f686121df565b6000546040516323b872dd60e01b8152336004820152306024820152604481018390526001600160a01b03909116906323b872dd906064016020604051808303816000875af1158015611fbf573d6000803e3d6000fd5b505050506040513d601f19601f82011682018060405250810190611fe39190614233565b506118953382612835565b6040805180820190915260008082526020820152610f9b8383612af7565b612014612047565b6001600160a01b03811661203e57604051631e4fbdf760e01b815260006004820152602401611187565b6113b081612635565b336120797f9016d09d72d40fdae2fd8ceac6b6234c7706214fd39c1cd1e609a0528c199300546001600160a01b031690565b6001600160a01b0316146113a45760405163118cdaa760e01b8152336004820152602401611187565b6120af8383836001612b5a565b505050565b6120bc612c41565b6112ee8282612c8a565b6113a4612c41565b6120d6612c41565b6113a4612cdb565b6120e6612c41565b6113b081612cfc565b6120f7612c41565b6113b081604051806040016040528060018152602001603160f81b815250612d04565b60006121268484611e05565b9050600019811461217a578181101561216b57604051637dc7a0d960e11b81526001600160a01b03841660048201526024810182905260448101839052606401611187565b61217a84848484036000612b5a565b50505050565b6001600160a01b0383166121aa57604051634b637e8f60e11b815260006004820152602401611187565b6001600160a01b0382166121d45760405163ec442f0560e01b815260006004820152602401611187565b6120af838383612d65565b6000805160206144888339815191525460ff16156113a45760405163d93c066560e01b815260040160405180910390fd5b6001600160a01b03821661223a57604051634b637e8f60e11b815260006004820152602401611187565b6112ee82600083612d65565b60006112fc612dde565b600065ffffffffffff821115612283576040516306dfcc6560e41b81526030600482015260248101839052604401611187565b5090565b8154600090818160058111156122e65760006122a284612e52565b6122ac9085614255565b60008881526020902090915081015465ffffffffffff90811690871610156122d6578091506122e4565b6122e1816001614268565b92505b505b60006122f487878585612f3a565b9050801561232f576123198761230b600184614255565b600091825260209091200190565b54600160301b90046001600160d01b0316611129565b6000979650505050505050565b612344612f9c565b600080516020614488833981519152805460ff191681557f5db9ee0a495bf2e6ff9c91a7834c1ba4fdd244a5e8aa4e537bd38aeae4b073aa335b6040516001600160a01b03909116815260200160405180910390a150565b60006112fc43612250565b306001600160a01b037f000000000000000000000000000000000000000000000000000000000000000016148061242e57507f00000000000000000000000000000000000000000000000000000000000000006001600160a01b0316612422600080516020614468833981519152546001600160a01b031690565b6001600160a01b031614155b156113a45760405163703e46dd60e11b815260040160405180910390fd5b6113b0612047565b816001600160a01b03166352d1902d6040518163ffffffff1660e01b8152600401602060405180830381865afa9250505080156124ae575060408051601f3d908101601f191682019092526124ab918101906141b5565b60015b6124d657604051634c9c8ce360e01b81526001600160a01b0383166004820152602401611187565b600080516020614468833981519152811461250757604051632a87526960e21b815260048101829052602401611187565b6120af8383612fcc565b306001600160a01b037f000000000000000000000000000000000000000000000000000000000000000016146113a45760405163703e46dd60e11b815260040160405180910390fd5b600080516020614408833981519152600061257484611463565b6001600160a01b0385811660008181526020869052604080822080546001600160a01b031916898616908117909155905194955093928516927f3134e8a2e6d97e929a7e54011ea5485d7d196dd5f0ba4d4ef95803e8e3fc257f9190a461217a81846125df87613022565b61302d565b6001600160a01b03811660009081527fe8b26c30fad74198956032a3533d903385d56dd795af560196f9c78d4af40d01602052604081205460008051602061440883398151915290610f9b906131a7565b7f9016d09d72d40fdae2fd8ceac6b6234c7706214fd39c1cd1e609a0528c19930080546001600160a01b031981166001600160a01b03848116918217845560405192169182907f8be0079c531659141344cd1fd0a4f28419497f9722a3daafe3b4186f6b6457e090600090a3505050565b6000610d09826131d8565b6126b96121df565b600080516020614488833981519152805460ff191660011781557f62e78cea01bee320cd4e420270b5ea74000d11b0c9f74754ebdbfc544b05a2583361237e565b7fa16a46d94261c7517cc8ff89f61c0ce93598e3c849801011dee649a6a557d102805460609160008051602061444883398151915291610c7190614124565b60606000600080516020614448833981519152610c60565b805460009080156127815761276b8361230b600184614255565b54600160301b90046001600160d01b0316610f9b565b60009392505050565b60035460005460405163095ea7b360e01b81526001600160a01b0391821660048201526024810184905291169063095ea7b3906044016020604051808303816000875af11580156127df573d6000803e3d6000fd5b505050506040513d601f19601f820116820180604052508101906128039190614233565b50600054604051630711942d60e51b8152600481018390526001600160a01b039091169063e23285a09060240161123c565b6001600160a01b03821661285f5760405163ec442f0560e01b815260006004820152602401611187565b6112ee60008383612d65565b60008181526004602052604090205460ff16156128c35760405162461bcd60e51b815260206004820152601660248201527514995dd85c9908185b1c9958591e4818db185a5b595960521b6044820152606401611187565b600081815260076020526040902054156129185760405162461bcd60e51b815260206004820152601660248201527514995dd85c9908185b1c9958591e4818db185a5b595960521b6044820152606401611187565b600254604051628f33d760e01b8152600481018390523060248201526001600160a01b0390911690628f33d790604401602060405180830381865afa158015612965573d6000803e3d6000fd5b505050506040513d601f19601f8201168201806040525081019061298991906141b5565b6000828152600760205260409081902091909155600254905163738759c960e11b8152600481018390523060248201526001600160a01b039091169063e70eb39290604401600060405180830381600087803b1580156129e857600080fd5b505af11580156129fc573d6000803e3d6000fd5b505050600091825250600460205260409020805460ff19166001179055565b6000610d09612a28612246565b8360405161190160f01b8152600281019290925260228201526042902090565b600080600080612a5a88888888613201565b925092509250612a6a82826132d0565b50909695505050505050565b6000612a8183612ab5565b90508082146120af576040516301d4b62360e61b81526001600160a01b038416600482015260248101829052604401611187565b6001600160a01b031660009081527f5ab42ced628888259c08ac98db1eb0cf702fc1501344311d8b100cd1bfe4bb006020526040902080546001810190915590565b604080518082018252600080825260208083018290526001600160a01b03861682527fe8b26c30fad74198956032a3533d903385d56dd795af560196f9c78d4af40d01905291909120600080516020614408833981519152906115bb9084613389565b6000805160206144288339815191526001600160a01b038516612b935760405163e602df0560e01b815260006004820152602401611187565b6001600160a01b038416612bbd57604051634a1406b160e11b815260006004820152602401611187565b6001600160a01b0380861660009081526001830160209081526040808320938816835292905220839055811561126a57836001600160a01b0316856001600160a01b03167f8c5be1e5ebec7d5bd14f71427d1e84f3dd0314c0f7b2291e5b200ac8c7c3b92585604051612c3291815260200190565b60405180910390a35050505050565b7ff0c57e16840df040f15088dc2f81fe391c3923bec73e23a9662efc9c229c6a0054600160401b900460ff166113a457604051631afcd79f60e31b815260040160405180910390fd5b612c92612c41565b6000805160206144288339815191527f52c63247e1f47db19d5ce0460030c497f067ca4cebf71ba98eeadabe20bace03612ccc84826142c2565b506004810161217a83826142c2565b612ce3612c41565b600080516020614488833981519152805460ff19169055565b612014612c41565b612d0c612c41565b6000805160206144488339815191527fa16a46d94261c7517cc8ff89f61c0ce93598e3c849801011dee649a6a557d102612d4684826142c2565b5060038101612d5583826142c2565b5060008082556001909101555050565b6001600160a01b03831615801590612d8557506001600160a01b03821615155b15612dc95760405162461bcd60e51b8152602060048201526014602482015273151c985b9cd9995c881b9bdd08185b1b1bddd95960621b6044820152606401611187565b612dd48383836133f9565b6120af828361255a565b60007f8b73c3c69bb8fe3d512ecc4cf759cc79239f7b179b0ffacaa9a75d522b39400f612e0961347f565b612e116134e9565b60408051602081019490945283019190915260608201524660808201523060a082015260c00160405160208183030381529060405280519060200120905090565b600081600003612e6457506000919050565b60006001612e718461352d565b901c6001901b90506001818481612e8a57612e8a6141fb565b048201901c90506001818481612ea257612ea26141fb565b048201901c90506001818481612eba57612eba6141fb565b048201901c90506001818481612ed257612ed26141fb565b048201901c90506001818481612eea57612eea6141fb565b048201901c90506001818481612f0257612f026141fb565b048201901c90506001818481612f1a57612f1a6141fb565b048201901c9050610f9b81828581612f3457612f346141fb565b046135c1565b60005b81831015612f94576000612f5184846135d7565b60008781526020902090915065ffffffffffff86169082015465ffffffffffff161115612f8057809250612f8e565b612f8b816001614268565b93505b50612f3d565b509392505050565b6000805160206144888339815191525460ff166113a457604051638dfc202b60e01b815260040160405180910390fd5b612fd5826135f2565b6040516001600160a01b038316907fbc7cd75a20ee27fd9adebab32041f755214dbc6bffa90cc0225b39da2e5c2d3b90600090a280511561301a576120af8282613657565b6112ee6136cd565b6000610d09826114f8565b6000805160206144088339815191526001600160a01b03848116908416148015906130585750600082115b1561217a576001600160a01b03841615613102576001600160a01b03841660009081526001820160205260408120819061309d906136ec613098876136f8565b61372c565b6001600160d01b031691506001600160d01b03169150856001600160a01b03167fdec2bacdd2f05b59de34da9b523dff8be42e5e38e818c82fdb0bae774387a72483836040516130f7929190918252602082015260400190565b60405180910390a250505b6001600160a01b0383161561217a576001600160a01b03831660009081526001820160205260408120819061313d90613765613098876136f8565b6001600160d01b031691506001600160d01b03169150846001600160a01b03167fdec2bacdd2f05b59de34da9b523dff8be42e5e38e818c82fdb0bae774387a7248383604051613197929190918252602082015260400190565b60405180910390a2505050505050565b600063ffffffff821115612283576040516306dfcc6560e41b81526020600482015260248101839052604401611187565b6000807f5ab42ced628888259c08ac98db1eb0cf702fc1501344311d8b100cd1bfe4bb0061150b565b600080807f7fffffffffffffffffffffffffffffff5d576e7357a4501ddfe92f46681b20a084111561323c57506000915060039050826132c6565b604080516000808252602082018084528a905260ff891692820192909252606081018790526080810186905260019060a0016020604051602081039080840390855afa158015613290573d6000803e3d6000fd5b5050604051601f1901519150506001600160a01b0381166132bc575060009250600191508290506132c6565b9250600091508190505b9450945094915050565b60008260038111156132e4576132e4614381565b036132ed575050565b600182600381111561330157613301614381565b0361331f5760405163f645eedf60e01b815260040160405180910390fd5b600282600381111561333357613333614381565b036133545760405163fce698f760e01b815260048101829052602401611187565b600382600381111561336857613368614381565b036112ee576040516335e2f38360e21b815260048101829052602401611187565b6040805180820190915260008082526020820152826000018263ffffffff16815481106133b8576133b8614397565b60009182526020918290206040805180820190915291015465ffffffffffff81168252600160301b90046001600160d01b0316918101919091529392505050565b613404838383613771565b6001600160a01b03831661347457600061343c7f52c63247e1f47db19d5ce0460030c497f067ca4cebf71ba98eeadabe20bace025490565b90506001600160d01b038082111561347157604051630e58ae9360e11b81526004810183905260248101829052604401611187565b50505b6120af838383613784565b6000600080516020614448833981519152816134996126fa565b8051909150156134b157805160209091012092915050565b815480156134c0579392505050565b7fc5d2460186f7233c927e7db2dcc703c0e500b653ca82273b7bfad8045d85a470935050505090565b600060008051602061444883398151915281613503612739565b80519091501561351b57805160209091012092915050565b600182015480156134c0579392505050565b600080608083901c1561354257608092831c92015b604083901c1561355457604092831c92015b602083901c1561356657602092831c92015b601083901c1561357857601092831c92015b600883901c1561358a57600892831c92015b600483901c1561359c57600492831c92015b600283901c156135ae57600292831c92015b600183901c15610d095760010192915050565b60008183106135d05781610f9b565b5090919050565b60006135e66002848418614211565b610f9b90848416614268565b806001600160a01b03163b60000361362857604051634c9c8ce360e01b81526001600160a01b0382166004820152602401611187565b60008051602061446883398151915280546001600160a01b0319166001600160a01b0392909216919091179055565b6060600080846001600160a01b03168460405161367491906143ad565b600060405180830381855af49150503d80600081146136af576040519150601f19603f3d011682016040523d82523d6000602084013e6136b4565b606091505b50915091506136c48583836137f6565b95945050505050565b34156113a45760405163b398979f60e01b815260040160405180910390fd5b6000610f9b82846143c9565b60006001600160d01b03821115612283576040516306dfcc6560e41b815260d0600482015260248101839052604401611187565b60008061375861373a611755565b61375061374688612751565b868863ffffffff16565b879190613852565b915091505b935093915050565b6000610f9b82846143e8565b6137796121df565b6120af838383613860565b6000805160206144088339815191526001600160a01b0384166137b7576137b481600201613765613098856136f8565b50505b6001600160a01b0383166137db576137d8816002016136ec613098856136f8565b50505b61217a6137e785611463565b6137f085611463565b8461302d565b60608261380b576138068261399e565b610f9b565b815115801561382257506001600160a01b0384163b155b1561384b57604051639996b31560e01b81526001600160a01b0385166004820152602401611187565b5080610f9b565b6000806137588585856139c7565b6000805160206144288339815191526001600160a01b03841661389c57818160020160008282546138919190614268565b9091555061390e9050565b6001600160a01b038416600090815260208290526040902054828110156138ef5760405163391434e360e21b81526001600160a01b03861660048201526024810182905260448101849052606401611187565b6001600160a01b03851660009081526020839052604090209083900390555b6001600160a01b03831661392c57600281018054839003905561394b565b6001600160a01b03831660009081526020829052604090208054830190555b826001600160a01b0316846001600160a01b03167fddf252ad1be2c89b69c2b068fc378daa952ba7f163c4a11628f55a4df523b3ef8460405161399091815260200190565b60405180910390a350505050565b8051156139ae5780518082602001fd5b604051630a12f52160e11b815260040160405180910390fd5b825460009081908015613ae65760006139e58761230b600185614255565b60408051808201909152905465ffffffffffff808216808452600160301b9092046001600160d01b031660208401529192509087161015613a3957604051632520601d60e01b815260040160405180910390fd5b805165ffffffffffff808816911603613a855784613a5c8861230b600186614255565b80546001600160d01b0392909216600160301b0265ffffffffffff909216919091179055613ad6565b6040805180820190915265ffffffffffff80881682526001600160d01b0380881660208085019182528b54600181018d5560008d81529190912094519151909216600160301b029216919091179101555b60200151925083915061375d9050565b50506040805180820190915265ffffffffffff80851682526001600160d01b0380851660208085019182528854600181018a5560008a815291822095519251909316600160301b02919093161792019190915590508161375d565b80356001600160a01b0381168114613b5857600080fd5b919050565b600060208284031215613b6f57600080fd5b610f9b82613b41565b60005b83811015613b93578181015183820152602001613b7b565b50506000910152565b60008151808452613bb4816020860160208601613b78565b601f01601f19169290920160200192915050565b602081526000610f9b6020830184613b9c565b60008060408385031215613bee57600080fd5b613bf783613b41565b946020939093013593505050565b634e487b7160e01b600052604160045260246000fd5b604051601f8201601f1916810167ffffffffffffffff81118282101715613c4457613c44613c05565b604052919050565b600067ffffffffffffffff821115613c6657613c66613c05565b5060051b60200190565b600082601f830112613c8157600080fd5b8135613c94613c8f82613c4c565b613c1b565b8082825260208201915060208360051b860101925085831115613cb657600080fd5b602085015b83811015613cd3578035835260209283019201613cbb565b5095945050505050565b600080600060608486031215613cf257600080fd5b83359250602084013567ffffffffffffffff811115613d1057600080fd5b8401601f81018613613d2157600080fd5b8035613d2f613c8f82613c4c565b8082825260208201915060208360051b850101925088831115613d5157600080fd5b6020840193505b82841015613d73578335825260209384019390910190613d58565b9450505050604084013567ffffffffffffffff811115613d9257600080fd5b613d9e86828701613c70565b9150509250925092565b600080600080600060a08688031215613dc057600080fd5b613dc986613b41565b9450613dd760208701613b41565b9350613de560408701613b41565b9250613df360608701613b41565b9150613e0160808701613b41565b90509295509295909350565b600080600060608486031215613e2257600080fd5b613e2b84613b41565b9250613e3960208501613b41565b929592945050506040919091013590565b600060208284031215613e5c57600080fd5b5035919050565b60008060408385031215613e7657600080fd5b82359150613e8660208401613b41565b90509250929050565b60008060408385031215613ea257600080fd5b613eab83613b41565b9150602083013567ffffffffffffffff811115613ec757600080fd5b8301601f81018513613ed857600080fd5b803567ffffffffffffffff811115613ef257613ef2613c05565b613f05601f8201601f1916602001613c1b565b818152866020838501011115613f1a57600080fd5b816020840160208301376000602083830101528093505050509250929050565b600081518084526020840193506020830160005b82811015613f6c578151865260209586019590910190600101613f4e565b5093949350505050565b60ff60f81b8816815260e060208201526000613f9560e0830189613b9c565b8281036040840152613fa78189613b9c565b606084018890526001600160a01b038716608085015260a0840186905283810360c08501529050613fd88185613f3a565b9a9950505050505050505050565b803560ff81168114613b5857600080fd5b60008060008060008060c0878903121561401057600080fd5b61401987613b41565b9550602087013594506040870135935061403560608801613fe6565b9598949750929560808101359460a0909101359350915050565b600080600080600080600060e0888a03121561406a57600080fd5b61407388613b41565b965061408160208901613b41565b9550604088013594506060880135935061409d60808901613fe6565b9699959850939692959460a0840135945060c09093013592915050565b600080604083850312156140cd57600080fd5b6140d683613b41565b9150613e8660208401613b41565b600080604083850312156140f757600080fd5b61410083613b41565b9150602083013563ffffffff8116811461411957600080fd5b809150509250929050565b600181811c9082168061413857607f821691505b60208210810361415857634e487b7160e01b600052602260045260246000fd5b50919050565b6000606082018583526060602084015280855180835260808501915060208701925060005b818110156141a1578351835260209384019390920191600101614183565b505083810360408501526111298186613f3a565b6000602082840312156141c757600080fd5b5051919050565b634e487b7160e01b600052601160045260246000fd5b8082028115828204841417610d0957610d096141ce565b634e487b7160e01b600052601260045260246000fd5b60008261422e57634e487b7160e01b600052601260045260246000fd5b500490565b60006020828403121561424557600080fd5b81518015158114610f9b57600080fd5b81810381811115610d0957610d096141ce565b80820180821115610d0957610d096141ce565b601f8211156120af57806000526020600020601f840160051c810160208510156142a25750805b601f840160051c820191505b8181101561126a57600081556001016142ae565b815167ffffffffffffffff8111156142dc576142dc613c05565b6142f0816142ea8454614124565b8461427b565b6020601f821160018114614324576000831561430c5750848201515b600019600385901b1c1916600184901b17845561126a565b600084815260208120601f198516915b828110156143545787850151825560209485019460019092019101614334565b50848210156143725786840151600019600387901b60f8161c191681555b50505050600190811b01905550565b634e487b7160e01b600052602160045260246000fd5b634e487b7160e01b600052603260045260246000fd5b600082516143bf818460208701613b78565b9190910192915050565b6001600160d01b038281168282160390811115610d0957610d096141ce565b6001600160d01b038181168382160190811115610d0957610d096141ce56fee8b26c30fad74198956032a3533d903385d56dd795af560196f9c78d4af40d0052c63247e1f47db19d5ce0460030c497f067ca4cebf71ba98eeadabe20bace00a16a46d94261c7517cc8ff89f61c0ce93598e3c849801011dee649a6a557d100360894a13ba1a3210667c828492db98dca3e2076cc3735a920a3ca505d382bbccd5ed15c6e187e77e9aee88184c21f4f2182ab5827cb3b7e07fbedcd63f03300a2646970667358221220e50bda9cdf2851ad964199ebeaf4abc8997545e15f794369fd0cb92bdfb91bfe64736f6c634300081b0033",
  "linkReferences": {},
  "deployedLinkReferences": {}
}