{
  "_format": "hh-sol-artifact-1",
  "contractName": "VeDelegateV2",
  "sourceName": "contracts/VOT3.sol",
  "abi": [
    {
      "inputs": [],
      "stateMutability": "nonpayable",
      "type": "constructor"
    },
    {
      "inputs": [
        {
          "internalType": "address",
          "name": "target",
          "type": "address"
        }
      ],
      "name": "AddressEmptyCode",
      "type": "error"
    },
    {
      "inputs": [],
      "name": "CheckpointUnorderedInsertion",
      "type": "error"
    },
    {
      "inputs": [],
      "name": "ECDSAInvalidSignature",
      "type": "error"
    },
    {
      "inputs": [
        {
          "internalType": "uint256",
          "name": "length",
          "type": "uint256"
        }
      ],
      "name": "ECDSAInvalidSignatureLength",
      "type": "error"
    },
    {
      "inputs": [
        {
          "internalType": "bytes32",
          "name": "s",
          "type": "bytes32"
        }
      ],
      "name": "ECDSAInvalidSignatureS",
      "type": "error"
    },
    {
      "inputs": [
        {
          "internalType": "address",
          "name": "implementation",
          "type": "address"
        }
      ],
      "name": "ERC1967InvalidImplementation",
      "type": "error"
    },
    {
      "inputs": [],
      "name": "ERC1967NonPayable",
      "type": "error"
    },
    {
      "inputs": [
        {
          "internalType": "uint256",
          "name": "increasedSupply",
          "type": "uint256"
        },
        {
          "internalType": "uint256",
          "name": "cap",
          "type": "uint256"
        }
      ],
      "name": "ERC20ExceededSafeSupply",
      "type": "error"
    },
    {
      "inputs": [
        {
          "internalType": "address",
          "name": "spender",
          "type": "address"
        },
        {
          "internalType": "uint256",
          "name": "allowance",
          "type": "uint256"
        },
        {
          "internalType": "uint256",
          "name": "needed",
          "type": "uint256"
        }
      ],
      "name": "ERC20InsufficientAllowance",
      "type": "error"
    },
    {
      "inputs": [
        {
          "internalType": "address",
          "name": "sender",
          "type": "address"
        },
        {
          "internalType": "uint256",
          "name": "balance",
          "type": "uint256"
        },
        {
          "internalType": "uint256",
          "name": "needed",
          "type": "uint256"
        }
      ],
      "name": "ERC20InsufficientBalance",
      "type": "error"
    },
    {
      "inputs": [
        {
          "internalType": "address",
          "name": "approver",
          "type": "address"
        }
      ],
      "name": "ERC20InvalidApprover",
      "type": "error"
    },
    {
      "inputs": [
        {
          "internalType": "address",
          "name": "receiver",
          "type": "address"
        }
      ],
      "name": "ERC20InvalidReceiver",
      "type": "error"
    },
    {
      "inputs": [
        {
          "internalType": "address",
          "name": "sender",
          "type": "address"
        }
      ],
      "name": "ERC20InvalidSender",
      "type": "error"
    },
    {
      "inputs": [
        {
          "internalType": "address",
          "name": "spender",
          "type": "address"
        }
      ],
      "name": "ERC20InvalidSpender",
      "type": "error"
    },
    {
      "inputs": [
        {
          "internalType": "uint256",
          "name": "deadline",
          "type": "uint256"
        }
      ],
      "name": "ERC2612ExpiredSignature",
      "type": "error"
    },
    {
      "inputs": [
        {
          "internalType": "address",
          "name": "signer",
          "type": "address"
        },
        {
          "internalType": "address",
          "name": "owner",
          "type": "address"
        }
      ],
      "name": "ERC2612InvalidSigner",
      "type": "error"
    },
    {
      "inputs": [
        {
          "internalType": "uint256",
          "name": "timepoint",
          "type": "uint256"
        },
        {
          "internalType": "uint48",
          "name": "clock",
          "type": "uint48"
        }
      ],
      "name": "ERC5805FutureLookup",
      "type": "error"
    },
    {
      "inputs": [],
      "name": "ERC6372InconsistentClock",
      "type": "error"
    },
    {
      "inputs": [],
      "name": "EnforcedPause",
      "type": "error"
    },
    {
      "inputs": [],
      "name": "ExpectedPause",
      "type": "error"
    },
    {
      "inputs": [],
      "name": "FailedInnerCall",
      "type": "error"
    },
    {
      "inputs": [
        {
          "internalType": "address",
          "name": "account",
          "type": "address"
        },
        {
          "internalType": "uint256",
          "name": "currentNonce",
          "type": "uint256"
        }
      ],
      "name": "InvalidAccountNonce",
      "type": "error"
    },
    {
      "inputs": [],
      "name": "InvalidInitialization",
      "type": "error"
    },
    {
      "inputs": [],
      "name": "NotInitializing",
      "type": "error"
    },
    {
      "inputs": [
        {
          "internalType": "address",
          "name": "owner",
          "type": "address"
        }
      ],
      "name": "OwnableInvalidOwner",
      "type": "error"
    },
    {
      "inputs": [
        {
          "internalType": "address",
          "name": "account",
          "type": "address"
        }
      ],
      "name": "OwnableUnauthorizedAccount",
      "type": "error"
    },
    {
      "inputs": [
        {
          "internalType": "uint8",
          "name": "bits",
          "type": "uint8"
        },
        {
          "internalType": "uint256",
          "name": "value",
          "type": "uint256"
        }
      ],
      "name": "SafeCastOverflowedUintDowncast",
      "type": "error"
    },
    {
      "inputs": [],
      "name": "UUPSUnauthorizedCallContext",
      "type": "error"
    },
    {
      "inputs": [
        {
          "internalType": "bytes32",
          "name": "slot",
          "type": "bytes32"
        }
      ],
      "name": "UUPSUnsupportedProxiableUUID",
      "type": "error"
    },
    {
      "inputs": [
        {
          "internalType": "uint256",
          "name": "expiry",
          "type": "uint256"
        }
      ],
      "name": "VotesExpiredSignature",
      "type": "error"
    },
    {
      "anonymous": false,
      "inputs": [
        {
          "indexed": true,
          "internalType": "address",
          "name": "owner",
          "type": "address"
        },
        {
          "indexed": true,
          "internalType": "address",
          "name": "spender",
          "type": "address"
        },
        {
          "indexed": false,
          "internalType": "uint256",
          "name": "value",
          "type": "uint256"
        }
      ],
      "name": "Approval",
      "type": "event"
    },
    {
      "anonymous": false,
      "inputs": [
        {
          "indexed": true,
          "internalType": "address",
          "name": "delegator",
          "type": "address"
        },
        {
          "indexed": true,
          "internalType": "address",
          "name": "fromDelegate",
          "type": "address"
        },
        {
          "indexed": true,
          "internalType": "address",
          "name": "toDelegate",
          "type": "address"
        }
      ],
      "name": "DelegateChanged",
      "type": "event"
    },
    {
      "anonymous": false,
      "inputs": [
        {
          "indexed": true,
          "internalType": "address",
          "name": "delegate",
          "type": "address"
        },
        {
          "indexed": false,
          "internalType": "uint256",
          "name": "previousVotes",
          "type": "uint256"
        },
        {
          "indexed": false,
          "internalType": "uint256",
          "name": "newVotes",
          "type": "uint256"
        }
      ],
      "name": "DelegateVotesChanged",
      "type": "event"
    },
    {
      "anonymous": false,
      "inputs": [
        {
          "indexed": false,
          "internalType": "address",
          "name": "user",
          "type": "address"
        },
        {
          "indexed": false,
          "internalType": "uint256",
          "name": "amount",
          "type": "uint256"
        }
      ],
      "name": "Deposit",
      "type": "event"
    },
    {
      "anonymous": false,
      "inputs": [
        {
          "indexed": false,
          "internalType": "address",
          "name": "user",
          "type": "address"
        },
        {
          "indexed": false,
          "internalType": "uint256",
          "name": "amount",
          "type": "uint256"
        },
        {
          "indexed": false,
          "internalType": "address",
          "name": "token",
          "type": "address"
        },
        {
          "indexed": false,
          "internalType": "address",
          "name": "referral",
          "type": "address"
        }
      ],
      "name": "DepositRecord",
      "type": "event"
    },
    {
      "anonymous": false,
      "inputs": [],
      "name": "EIP712DomainChanged",
      "type": "event"
    },
    {
      "anonymous": false,
      "inputs": [
        {
          "indexed": false,
          "internalType": "uint64",
          "name": "version",
          "type": "uint64"
        }
      ],
      "name": "Initialized",
      "type": "event"
    },
    {
      "anonymous": false,
      "inputs": [
        {
          "indexed": true,
          "internalType": "address",
          "name": "previousOwner",
          "type": "address"
        },
        {
          "indexed": true,
          "internalType": "address",
          "name": "newOwner",
          "type": "address"
        }
      ],
      "name": "OwnershipTransferred",
      "type": "event"
    },
    {
      "anonymous": false,
      "inputs": [
        {
          "indexed": false,
          "internalType": "address",
          "name": "account",
          "type": "address"
        }
      ],
      "name": "Paused",
      "type": "event"
    },
    {
      "anonymous": false,
      "inputs": [
        {
          "indexed": false,
          "internalType": "uint256",
          "name": "roundId",
          "type": "uint256"
        },
        {
          "indexed": false,
          "internalType": "address",
          "name": "user",
          "type": "address"
        },
        {
          "indexed": false,
          "internalType": "uint256",
          "name": "amount",
          "type": "uint256"
        }
      ],
      "name": "RewardClaimed",
      "type": "event"
    },
    {
      "anonymous": false,
      "inputs": [
        {
          "indexed": true,
          "internalType": "address",
          "name": "from",
          "type": "address"
        },
        {
          "indexed": true,
          "internalType": "address",
          "name": "to",
          "type": "address"
        },
        {
          "indexed": false,
          "internalType": "uint256",
          "name": "value",
          "type": "uint256"
        }
      ],
      "name": "Transfer",
      "type": "event"
    },
    {
      "anonymous": false,
      "inputs": [
        {
          "indexed": false,
          "internalType": "address",
          "name": "account",
          "type": "address"
        }
      ],
      "name": "Unpaused",
      "type": "event"
    },
    {
      "anonymous": false,
      "inputs": [
        {
          "indexed": true,
          "internalType": "address",
          "name": "implementation",
          "type": "address"
        }
      ],
      "name": "Upgraded",
      "type": "event"
    },
    {
      "anonymous": false,
      "inputs": [
        {
          "indexed": false,
          "internalType": "address",
          "name": "user",
          "type": "address"
        },
        {
          "indexed": false,
          "internalType": "uint256",
          "name": "amount",
          "type": "uint256"
        }
      ],
      "name": "Withdraw",
      "type": "event"
    },
    {
      "anonymous": false,
      "inputs": [
        {
          "indexed": false,
          "internalType": "address",
          "name": "user",
          "type": "address"
        },
        {
          "indexed": false,
          "internalType": "uint256",
          "name": "amount",
          "type": "uint256"
        },
        {
          "indexed": false,
          "internalType": "address",
          "name": "token",
          "type": "address"
        }
      ],
      "name": "WithdrawRecord",
      "type": "event"
    },
    {
      "inputs": [
        {
          "internalType": "address",
          "name": "",
          "type": "address"
        }
      ],
      "name": "B3TRBalances",
      "outputs": [
        {
          "internalType": "uint256",
          "name": "",
          "type": "uint256"
        }
      ],
      "stateMutability": "view",
      "type": "function"
    },
    {
      "inputs": [],
      "name": "CLOCK_MODE",
      "outputs": [
        {
          "internalType": "string",
          "name": "",
          "type": "string"
        }
      ],
      "stateMutability": "view",
      "type": "function"
    },
    {
      "inputs": [],
      "name": "DOMAIN_SEPARATOR",
      "outputs": [
        {
          "internalType": "bytes32",
          "name": "",
          "type": "bytes32"
        }
      ],
      "stateMutability": "view",
      "type": "function"
    },
    {
      "inputs": [],
      "name": "UPGRADE_INTERFACE_VERSION",
      "outputs": [
        {
          "internalType": "string",
          "name": "",
          "type": "string"
        }
      ],
      "stateMutability": "view",
      "type": "function"
    },
    {
      "inputs": [
        {
          "internalType": "address",
          "name": "entity",
          "type": "address"
        }
      ],
      "name": "acceptEntityLink",
      "outputs": [],
      "stateMutability": "nonpayable",
      "type": "function"
    },
    {
      "inputs": [
        {
          "internalType": "address",
          "name": "owner",
          "type": "address"
        },
        {
          "internalType": "address",
          "name": "spender",
          "type": "address"
        }
      ],
      "name": "allowance",
      "outputs": [
        {
          "internalType": "uint256",
          "name": "",
          "type": "uint256"
        }
      ],
      "stateMutability": "view",
      "type": "function"
    },
    {
      "inputs": [
        {
          "internalType": "address",
          "name": "spender",
          "type": "address"
        },
        {
          "internalType": "uint256",
          "name": "value",
          "type": "uint256"
        }
      ],
      "name": "approve",
      "outputs": [
        {
          "internalType": "bool",
          "name": "",
          "type": "bool"
        }
      ],
      "stateMutability": "nonpayable",
      "type": "function"
    },
    {
      "inputs": [],
      "name": "b3tr",
      "outputs": [
        {
          "internalType": "contract IERC20",
          "name": "",
          "type": "address"
        }
      ],
      "stateMutability": "view",
      "type": "function"
    },
    {
      "inputs": [
        {
          "internalType": "address",
          "name": "account",
          "type": "address"
        }
      ],
      "name": "balanceOf",
      "outputs": [
        {
          "internalType": "uint256",
          "name": "",
          "type": "uint256"
        }
      ],
      "stateMutability": "view",
      "type": "function"
    },
    {
      "inputs": [
        {
          "internalType": "uint256",
          "name": "value",
          "type": "uint256"
        }
      ],
      "name": "burn",
      "outputs": [],
      "stateMutability": "nonpayable",
      "type": "function"
    },
    {
      "inputs": [
        {
          "internalType": "address",
          "name": "account",
          "type": "address"
        },
        {
          "internalType": "uint256",
          "name": "value",
          "type": "uint256"
        }
      ],
      "name": "burnFrom",
      "outputs": [],
      "stateMutability": "nonpayable",
      "type": "function"
    },
    {
      "inputs": [
        {
          "internalType": "uint256",
          "name": "roundId",
          "type": "uint256"
        }
      ],
      "name": "checkReward",
      "outputs": [
        {
          "internalType": "uint256",
          "name": "",
          "type": "uint256"
        }
      ],
      "stateMutability": "view",
      "type": "function"
    },
    {
      "inputs": [
        {
          "internalType": "uint256",
          "name": "roundId",
          "type": "uint256"
        },
        {
          "internalType": "address",
          "name": "user",
          "type": "address"
        }
      ],
      "name": "checkUserReward",
      "outputs": [
        {
          "internalType": "uint256",
          "name": "",
          "type": "uint256"
        }
      ],
      "stateMutability": "view",
      "type": "function"
    },
    {
      "inputs": [
        {
          "internalType": "address",
          "name": "account",
          "type": "address"
        },
        {
          "internalType": "uint32",
          "name": "pos",
          "type": "uint32"
        }
      ],
      "name": "checkpoints",
      "outputs": [
        {
          "components": [
            {
              "internalType": "uint48",
              "name": "_key",
              "type": "uint48"
            },
            {
              "internalType": "uint208",
              "name": "_value",
              "type": "uint208"
            }
          ],
          "internalType": "struct Checkpoints.Checkpoint208",
          "name": "",
          "type": "tuple"
        }
      ],
      "stateMutability": "view",
      "type": "function"
    },
    {
      "inputs": [
        {
          "internalType": "uint256",
          "name": "roundId",
          "type": "uint256"
        },
        {
          "internalType": "address",
          "name": "user",
          "type": "address"
        }
      ],
      "name": "checkuserClaimed",
      "outputs": [
        {
          "internalType": "bool",
          "name": "",
          "type": "bool"
        }
      ],
      "stateMutability": "view",
      "type": "function"
    },
    {
      "inputs": [
        {
          "internalType": "uint256",
          "name": "roundId",
          "type": "uint256"
        }
      ],
      "name": "claimReward",
      "outputs": [],
      "stateMutability": "nonpayable",
      "type": "function"
    },
    {
      "inputs": [
        {
          "internalType": "uint256",
          "name": "",
          "type": "uint256"
        }
      ],
      "name": "claimed",
      "outputs": [
        {
          "internalType": "bool",
          "name": "",
          "type": "bool"
        }
      ],
      "stateMutability": "view",
      "type": "function"
    },
    {
      "inputs": [],
      "name": "clock",
      "outputs": [
        {
          "internalType": "uint48",
          "name": "",
          "type": "uint48"
        }
      ],
      "stateMutability": "view",
      "type": "function"
    },
    {
      "inputs": [],
      "name": "decimals",
      "outputs": [
        {
          "internalType": "uint8",
          "name": "",
          "type": "uint8"
        }
      ],
      "stateMutability": "view",
      "type": "function"
    },
    {
      "inputs": [
        {
          "internalType": "address",
          "name": "delegatee",
          "type": "address"
        }
      ],
      "name": "delegate",
      "outputs": [],
      "stateMutability": "nonpayable",
      "type": "function"
    },
    {
      "inputs": [
        {
          "internalType": "address",
          "name": "delegatee",
          "type": "address"
        },
        {
          "internalType": "uint256",
          "name": "nonce",
          "type": "uint256"
        },
        {
          "internalType": "uint256",
          "name": "expiry",
          "type": "uint256"
        },
        {
          "internalType": "uint8",
          "name": "v",
          "type": "uint8"
        },
        {
          "internalType": "bytes32",
          "name": "r",
          "type": "bytes32"
        },
        {
          "internalType": "bytes32",
          "name": "s",
          "type": "bytes32"
        }
      ],
      "name": "delegateBySig",
      "outputs": [],
      "stateMutability": "nonpayable",
      "type": "function"
    },
    {
      "inputs": [
        {
          "internalType": "address",
          "name": "account",
          "type": "address"
        }
      ],
      "name": "delegates",
      "outputs": [
        {
          "internalType": "address",
          "name": "",
          "type": "address"
        }
      ],
      "stateMutability": "view",
      "type": "function"
    },
    {
      "inputs": [
        {
          "internalType": "uint256",
          "name": "amount",
          "type": "uint256"
        }
      ],
      "name": "depositB3TR",
      "outputs": [],
      "stateMutability": "nonpayable",
      "type": "function"
    },
    {
      "inputs": [
        {
          "internalType": "uint256",
          "name": "amount",
          "type": "uint256"
        },
        {
          "internalType": "address",
          "name": "referral",
          "type": "address"
        }
      ],
      "name": "depositB3TRWithReferral",
      "outputs": [],
      "stateMutability": "nonpayable",
      "type": "function"
    },
    {
      "inputs": [
        {
          "internalType": "uint256",
          "name": "amount",
          "type": "uint256"
        }
      ],
      "name": "depositVOT3",
      "outputs": [],
      "stateMutability": "nonpayable",
      "type": "function"
    },
    {
      "inputs": [
        {
          "internalType": "uint256",
          "name": "amount",
          "type": "uint256"
        },
        {
          "internalType": "address",
          "name": "referral",
          "type": "address"
        }
      ],
      "name": "depositVOT3WithReferral",
      "outputs": [],
      "stateMutability": "nonpayable",
      "type": "function"
    },
    {
      "inputs": [],
      "name": "eip712Domain",
      "outputs": [
        {
          "internalType": "bytes1",
          "name": "fields",
          "type": "bytes1"
        },
        {
          "internalType": "string",
          "name": "name",
          "type": "string"
        },
        {
          "internalType": "string",
          "name": "version",
          "type": "string"
        },
        {
          "internalType": "uint256",
          "name": "chainId",
          "type": "uint256"
        },
        {
          "internalType": "address",
          "name": "verifyingContract",
          "type": "address"
        },
        {
          "internalType": "bytes32",
          "name": "salt",
          "type": "bytes32"
        },
        {
          "internalType": "uint256[]",
          "name": "extensions",
          "type": "uint256[]"
        }
      ],
      "stateMutability": "view",
      "type": "function"
    },
    {
      "inputs": [
        {
          "internalType": "uint256",
          "name": "timepoint",
          "type": "uint256"
        }
      ],
      "name": "getPastTotalSupply",
      "outputs": [
        {
          "internalType": "uint256",
          "name": "",
          "type": "uint256"
        }
      ],
      "stateMutability": "view",
      "type": "function"
    },
    {
      "inputs": [
        {
          "internalType": "address",
          "name": "account",
          "type": "address"
        },
        {
          "internalType": "uint256",
          "name": "timepoint",
          "type": "uint256"
        }
      ],
      "name": "getPastVotes",
      "outputs": [
        {
          "internalType": "uint256",
          "name": "",
          "type": "uint256"
        }
      ],
      "stateMutability": "view",
      "type": "function"
    },
    {
      "inputs": [
        {
          "internalType": "uint256",
          "name": "roundId",
          "type": "uint256"
        }
      ],
      "name": "getTotalVotes",
      "outputs": [
        {
          "internalType": "uint256",
          "name": "",
          "type": "uint256"
        }
      ],
      "stateMutability": "view",
      "type": "function"
    },
    {
      "inputs": [
        {
          "internalType": "address",
          "name": "account",
          "type": "address"
        },
        {
          "internalType": "uint256",
          "name": "roundId",
          "type": "uint256"
        }
      ],
      "name": "getUserVotes",
      "outputs": [
        {
          "internalType": "uint256",
          "name": "",
          "type": "uint256"
        }
      ],
      "stateMutability": "view",
      "type": "function"
    },
    {
      "inputs": [
        {
          "internalType": "address",
          "name": "account",
          "type": "address"
        }
      ],
      "name": "getVotes",
      "outputs": [
        {
          "internalType": "uint256",
          "name": "",
          "type": "uint256"
        }
      ],
      "stateMutability": "view",
      "type": "function"
    },
    {
      "inputs": [],
      "name": "gov",
      "outputs": [
        {
          "internalType": "contract GOV",
          "name": "",
          "type": "address"
        }
      ],
      "stateMutability": "view",
      "type": "function"
    },
    {
      "inputs": [],
      "name": "govReward",
      "outputs": [
        {
          "internalType": "uint256",
          "name": "",
          "type": "uint256"
        }
      ],
      "stateMutability": "view",
      "type": "function"
    },
    {
      "inputs": [
        {
          "internalType": "address",
          "name": "_owner",
          "type": "address"
        },
        {
          "internalType": "address",
          "name": "_vot3",
          "type": "address"
        },
        {
          "internalType": "address",
          "name": "_b3tr",
          "type": "address"
        },
        {
          "internalType": "address",
          "name": "_gov",
          "type": "address"
        },
        {
          "internalType": "address",
          "name": "_reward",
          "type": "address"
        }
      ],
      "name": "initialize",
      "outputs": [],
      "stateMutability": "nonpayable",
      "type": "function"
    },
    {
      "inputs": [
        {
          "internalType": "address",
          "name": "_passport",
          "type": "address"
        }
      ],
      "name": "linkPassport",
      "outputs": [],
      "stateMutability": "nonpayable",
      "type": "function"
    },
    {
      "inputs": [],
      "name": "name",
      "outputs": [
        {
          "internalType": "string",
          "name": "",
          "type": "string"
        }
      ],
      "stateMutability": "view",
      "type": "function"
    },
    {
      "inputs": [
        {
          "internalType": "address",
          "name": "owner",
          "type": "address"
        }
      ],
      "name": "nonces",
      "outputs": [
        {
          "internalType": "uint256",
          "name": "",
          "type": "uint256"
        }
      ],
      "stateMutability": "view",
      "type": "function"
    },
    {
      "inputs": [
        {
          "internalType": "address",
          "name": "account",
          "type": "address"
        }
      ],
      "name": "numCheckpoints",
      "outputs": [
        {
          "internalType": "uint32",
          "name": "",
          "type": "uint32"
        }
      ],
      "stateMutability": "view",
      "type": "function"
    },
    {
      "inputs": [],
      "name": "owner",
      "outputs": [
        {
          "internalType": "address",
          "name": "",
          "type": "address"
        }
      ],
      "stateMutability": "view",
      "type": "function"
    },
    {
      "inputs": [],
      "name": "pause",
      "outputs": [],
      "stateMutability": "nonpayable",
      "type": "function"
    },
    {
      "inputs": [],
      "name": "paused",
      "outputs": [
        {
          "internalType": "bool",
          "name": "",
          "type": "bool"
        }
      ],
      "stateMutability": "view",
      "type": "function"
    },
    {
      "inputs": [
        {
          "internalType": "address",
          "name": "owner",
          "type": "address"
        },
        {
          "internalType": "address",
          "name": "spender",
          "type": "address"
        },
        {
          "internalType": "uint256",
          "name": "value",
          "type": "uint256"
        },
        {
          "internalType": "uint256",
          "name": "deadline",
          "type": "uint256"
        },
        {
          "internalType": "uint8",
          "name": "v",
          "type": "uint8"
        },
        {
          "internalType": "bytes32",
          "name": "r",
          "type": "bytes32"
        },
        {
          "internalType": "bytes32",
          "name": "s",
          "type": "bytes32"
        }
      ],
      "name": "permit",
      "outputs": [],
      "stateMutability": "nonpayable",
      "type": "function"
    },
    {
      "inputs": [],
      "name": "proxiableUUID",
      "outputs": [
        {
          "internalType": "bytes32",
          "name": "",
          "type": "bytes32"
        }
      ],
      "stateMutability": "view",
      "type": "function"
    },
    {
      "inputs": [],
      "name": "renounceOwnership",
      "outputs": [],
      "stateMutability": "nonpayable",
      "type": "function"
    },
    {
      "inputs": [],
      "name": "reward",
      "outputs": [
        {
          "internalType": "contract REWARD",
          "name": "",
          "type": "address"
        }
      ],
      "stateMutability": "view",
      "type": "function"
    },
    {
      "inputs": [
        {
          "internalType": "uint256",
          "name": "",
          "type": "uint256"
        }
      ],
      "name": "rewardTotalAmount",
      "outputs": [
        {
          "internalType": "uint256",
          "name": "",
          "type": "uint256"
        }
      ],
      "stateMutability": "view",
      "type": "function"
    },
    {
      "inputs": [
        {
          "internalType": "address",
          "name": "_b3tr",
          "type": "address"
        }
      ],
      "name": "setB3TR",
      "outputs": [],
      "stateMutability": "nonpayable",
      "type": "function"
    },
    {
      "inputs": [
        {
          "internalType": "address",
          "name": "_gov",
          "type": "address"
        }
      ],
      "name": "setGOV",
      "outputs": [],
      "stateMutability": "nonpayable",
      "type": "function"
    },
    {
      "inputs": [
        {
          "internalType": "address",
          "name": "_reward",
          "type": "address"
        }
      ],
      "name": "setREWARD",
      "outputs": [],
      "stateMutability": "nonpayable",
      "type": "function"
    },
    {
      "inputs": [
        {
          "internalType": "address",
          "name": "user",
          "type": "address"
        },
        {
          "internalType": "uint256",
          "name": "amount",
          "type": "uint256"
        }
      ],
      "name": "setUserB3TRBalance",
      "outputs": [],
      "stateMutability": "nonpayable",
      "type": "function"
    },
    {
      "inputs": [
        {
          "internalType": "address",
          "name": "_vot3",
          "type": "address"
        }
      ],
      "name": "setVOT3",
      "outputs": [],
      "stateMutability": "nonpayable",
      "type": "function"
    },
    {
      "inputs": [
        {
          "internalType": "address",
          "name": "_vpassport",
          "type": "address"
        }
      ],
      "name": "setVPASSPORT",
      "outputs": [],
      "stateMutability": "nonpayable",
      "type": "function"
    },
    {
      "inputs": [],
      "name": "symbol",
      "outputs": [
        {
          "internalType": "string",
          "name": "",
          "type": "string"
        }
      ],
      "stateMutability": "view",
      "type": "function"
    },
    {
      "inputs": [],
      "name": "totalSupply",
      "outputs": [
        {
          "internalType": "uint256",
          "name": "",
          "type": "uint256"
        }
      ],
      "stateMutability": "view",
      "type": "function"
    },
    {
      "inputs": [
        {
          "internalType": "address",
          "name": "to",
          "type": "address"
        },
        {
          "internalType": "uint256",
          "name": "value",
          "type": "uint256"
        }
      ],
      "name": "transfer",
      "outputs": [
        {
          "internalType": "bool",
          "name": "",
          "type": "bool"
        }
      ],
      "stateMutability": "nonpayable",
      "type": "function"
    },
    {
      "inputs": [
        {
          "internalType": "address",
          "name": "from",
          "type": "address"
        },
        {
          "internalType": "address",
          "name": "to",
          "type": "address"
        },
        {
          "internalType": "uint256",
          "name": "value",
          "type": "uint256"
        }
      ],
      "name": "transferFrom",
      "outputs": [
        {
          "internalType": "bool",
          "name": "",
          "type": "bool"
        }
      ],
      "stateMutability": "nonpayable",
      "type": "function"
    },
    {
      "inputs": [
        {
          "internalType": "address",
          "name": "newOwner",
          "type": "address"
        }
      ],
      "name": "transferOwnership",
      "outputs": [],
      "stateMutability": "nonpayable",
      "type": "function"
    },
    {
      "inputs": [],
      "name": "unpause",
      "outputs": [],
      "stateMutability": "nonpayable",
      "type": "function"
    },
    {
      "inputs": [
        {
          "internalType": "address",
          "name": "newImplementation",
          "type": "address"
        },
        {
          "internalType": "bytes",
          "name": "data",
          "type": "bytes"
        }
      ],
      "name": "upgradeToAndCall",
      "outputs": [],
      "stateMutability": "payable",
      "type": "function"
    },
    {
      "inputs": [
        {
          "internalType": "uint256",
          "name": "",
          "type": "uint256"
        },
        {
          "internalType": "address",
          "name": "",
          "type": "address"
        }
      ],
      "name": "userClaimed",
      "outputs": [
        {
          "internalType": "bool",
          "name": "",
          "type": "bool"
        }
      ],
      "stateMutability": "view",
      "type": "function"
    },
    {
      "inputs": [],
      "name": "vot3",
      "outputs": [
        {
          "internalType": "contract VOT3",
          "name": "",
          "type": "address"
        }
      ],
      "stateMutability": "view",
      "type": "function"
    },
    {
      "inputs": [
        {
          "internalType": "uint256",
          "name": "roundId",
          "type": "uint256"
        },
        {
          "internalType": "bytes32[]",
          "name": "appIds",
          "type": "bytes32[]"
        },
        {
          "internalType": "uint256[]",
          "name": "votesPower",
          "type": "uint256[]"
        }
      ],
      "name": "vote",
      "outputs": [],
      "stateMutability": "nonpayable",
      "type": "function"
    },
    {
      "inputs": [],
      "name": "vpassport",
      "outputs": [
        {
          "internalType": "contract VPASSPORT",
          "name": "",
          "type": "address"
        }
      ],
      "stateMutability": "view",
      "type": "function"
    },
    {
      "inputs": [
        {
          "internalType": "uint256",
          "name": "amount",
          "type": "uint256"
        }
      ],
      "name": "withdraw",
      "outputs": [],
      "stateMutability": "nonpayable",
      "type": "function"
    },
    {
      "inputs": [
        {
          "internalType": "uint256",
          "name": "amount",
          "type": "uint256"
        }
      ],
      "name": "withdrawB3TR",
      "outputs": [],
      "stateMutability": "nonpayable",
      "type": "function"
    },
    {
      "inputs": [
        {
          "internalType": "uint256",
          "name": "amount",
          "type": "uint256"
        }
      ],
      "name": "withdrawInB3TR",
      "outputs": [],
      "stateMutability": "nonpayable",
      "type": "function"
    }
  ],
  "bytecode": "0x60a06040523060805234801561001457600080fd5b5061001d610022565b6100d4565b7ff0c57e16840df040f15088dc2f81fe391c3923bec73e23a9662efc9c229c6a00805468010000000000000000900460ff16156100725760405163f92ee8a960e01b815260040160405180910390fd5b80546001600160401b03908116146100d15780546001600160401b0319166001600160401b0390811782556040519081527fc7f505b2f371ae2175ee4913f4499e1f2633a7b5936321eed1cdaeb6115181d29060200160405180910390a15b50565b608051614e116100fd60003960008181612c1801528181612c410152612d820152614e116000f3fe6080604052600436106103e45760003560e01c8063715018a611610208578063aa690e9211610118578063dc11b537116100ab578063f039d57e1161007a578063f039d57e14610c5b578063f1127ed814610c7b578063f2fde38b14610cc7578063fac4c6f514610ce7578063fda5ffa914610d0757600080fd5b8063dc11b53714610bb5578063dd62ed3e14610bd5578063e469899114610bf5578063ec3e0a3b14610c1557600080fd5b8063c3cda520116100e7578063c3cda52014610b25578063d1143f3a14610b45578063d505accf14610b65578063dbe7e3bd14610b8557600080fd5b8063aa690e9214610a94578063ad3cb1cc14610ab4578063ae169a5014610ae5578063baa3278914610b0557600080fd5b80638da5cb5b1161019b57806395d89b411161016a57806395d89b41146109f25780639ab24eb014610a075780639aea843d14610a27578063a3cf7fad14610a47578063a9059cbb14610a7457600080fd5b80638da5cb5b146109495780638e539e8c1461098657806391ddadf4146109a657806392274743146109d257600080fd5b80638456cb59116101d75780638456cb59146108d657806384b0196e146108eb57806384b5ba951461091357806389dc5c841461093357600080fd5b8063715018a614610861578063771660671461087657806379cc6790146108965780637ecebe00146108b657600080fd5b80633beb9842116103035780635a63218a11610296578063614e97c911610265578063614e97c91461079f578063615c7ad0146107bf5780636a7ff796146107ec5780636fcfff451461080c57806370a082311461084157600080fd5b80635a63218a1461071a5780635c19a95c1461073a5780635c975abb1461075a5780635f177e1d1461077f57600080fd5b80634f1ef286116102d25780634f1ef286146106b257806352d1902d146106c5578063582a486a146106da578063587cde1e146106fa57600080fd5b80633beb98421461062d5780633f4ba83a1461066857806342966c681461067d5780634bf5d7e91461069d57600080fd5b806323b872dd1161037b5780632f3454f31161034a5780632f3454f3146105bc578063313ce567146105dc5780633644e515146105f85780633a46b1a81461060d57600080fd5b806323b872dd1461053c5780632ce35e111461055c5780632df458151461057c5780632e1a7d4d1461059c57600080fd5b806312d43a51116103b757806312d43a51146104865780631459457a146104be57806318160ddd146104de578063228cb7331461051c57600080fd5b80630441c385146103e957806306fdde031461040b578063095ea7b3146104365780630c29575514610466575b600080fd5b3480156103f557600080fd5b506104096104043660046143f4565b610d27565b005b34801561041757600080fd5b50610420610d51565b60405161042d919061445f565b60405180910390f35b34801561044257600080fd5b50610456610451366004614472565b610dfa565b604051901515815260200161042d565b34801561047257600080fd5b50610409610481366004614574565b610e14565b34801561049257600080fd5b506001546104a6906001600160a01b031681565b6040516001600160a01b03909116815260200161042d565b3480156104ca57600080fd5b506104096104d936600461463f565b610e87565b3480156104ea57600080fd5b507f52c63247e1f47db19d5ce0460030c497f067ca4cebf71ba98eeadabe20bace02545b60405190815260200161042d565b34801561052857600080fd5b506002546104a6906001600160a01b031681565b34801561054857600080fd5b506104566105573660046146a4565b611081565b34801561056857600080fd5b5061050e6105773660046146e1565b6110a7565b34801561058857600080fd5b5061050e6105973660046146fa565b611124565b3480156105a857600080fd5b506104096105b73660046146e1565b611239565b3480156105c857600080fd5b506104096105d73660046146e1565b6113e4565b3480156105e857600080fd5b506040516012815260200161042d565b34801561060457600080fd5b5061050e611522565b34801561061957600080fd5b5061050e610628366004614472565b611531565b34801561063957600080fd5b506104566106483660046146fa565b600560209081526000928352604080842090915290825290205460ff1681565b34801561067457600080fd5b506104096115c4565b34801561068957600080fd5b506104096106983660046146e1565b6115d6565b3480156106a957600080fd5b506104206115e3565b6104096106c0366004614726565b61165b565b3480156106d157600080fd5b5061050e611676565b3480156106e657600080fd5b506003546104a6906001600160a01b031681565b34801561070657600080fd5b506104a66107153660046143f4565b611693565b34801561072657600080fd5b506104096107353660046143f4565b6116be565b34801561074657600080fd5b506104096107553660046143f4565b6116e8565b34801561076657600080fd5b50600080516020614d9c8339815191525460ff16610456565b34801561078b57600080fd5b5061040961079a3660046146e1565b6116f3565b3480156107ab57600080fd5b506104096107ba3660046143f4565b6118e1565b3480156107cb57600080fd5b5061050e6107da3660046143f4565b60096020526000908152604090205481565b3480156107f857600080fd5b506000546104a6906001600160a01b031681565b34801561081857600080fd5b5061082c6108273660046143f4565b61190b565b60405163ffffffff909116815260200161042d565b34801561084d57600080fd5b5061050e61085c3660046143f4565b611916565b34801561086d57600080fd5b50610409611949565b34801561088257600080fd5b5061050e610891366004614472565b61195b565b3480156108a257600080fd5b506104096108b1366004614472565b6119e1565b3480156108c257600080fd5b5061050e6108d13660046143f4565b6119f6565b3480156108e257600080fd5b50610409611a01565b3480156108f757600080fd5b50610900611a11565b60405161042d979695949392919061480d565b34801561091f57600080fd5b5061040961092e3660046143f4565b611abd565b34801561093f57600080fd5b5061050e60085481565b34801561095557600080fd5b507f9016d09d72d40fdae2fd8ceac6b6234c7706214fd39c1cd1e609a0528c199300546001600160a01b03166104a6565b34801561099257600080fd5b5061050e6109a13660046146e1565b611b28565b3480156109b257600080fd5b506109bb611ba4565b60405165ffffffffffff909116815260200161042d565b3480156109de57600080fd5b506104096109ed3660046146fa565b611bae565b3480156109fe57600080fd5b50610420611cd2565b348015610a1357600080fd5b5061050e610a223660046143f4565b611d11565b348015610a3357600080fd5b50610409610a423660046146e1565b611d71565b348015610a5357600080fd5b5061050e610a623660046146e1565b60076020526000908152604090205481565b348015610a8057600080fd5b50610456610a8f366004614472565b611ebf565b348015610aa057600080fd5b50610409610aaf3660046143f4565b611ecd565b348015610ac057600080fd5b50610420604051806040016040528060058152602001640352e302e360dc1b81525081565b348015610af157600080fd5b50610409610b003660046146e1565b611ef7565b348015610b1157600080fd5b506006546104a6906001600160a01b031681565b348015610b3157600080fd5b50610409610b4036600461488e565b612251565b348015610b5157600080fd5b50610409610b603660046143f4565b612305565b348015610b7157600080fd5b50610409610b803660046148e6565b61233f565b348015610b9157600080fd5b50610456610ba03660046146e1565b60046020526000908152604090205460ff1681565b348015610bc157600080fd5b50610409610bd03660046143f4565b61244f565b348015610be157600080fd5b5061050e610bf0366004614951565b612479565b348015610c0157600080fd5b5061050e610c103660046146e1565b6124c3565b348015610c2157600080fd5b50610456610c303660046146fa565b60009182526005602090815260408084206001600160a01b0393909316845291905290205460ff1690565b348015610c6757600080fd5b50610409610c763660046146e1565b6125d4565b348015610c8757600080fd5b50610c9b610c9636600461497b565b6126e9565b60408051825165ffffffffffff1681526020928301516001600160d01b0316928101929092520161042d565b348015610cd357600080fd5b50610409610ce23660046143f4565b612707565b348015610cf357600080fd5b50610409610d023660046146fa565b612742565b348015610d1357600080fd5b50610409610d22366004614472565b61288f565b610d2f6128b3565b600080546001600160a01b0319166001600160a01b0392909216919091179055565b60606000600080516020614d3c8339815191525b9050806003018054610d76906149bb565b80601f0160208091040260200160405190810160405280929190818152602001828054610da2906149bb565b8015610def5780601f10610dc457610100808354040283529160200191610def565b820191906000526020600020905b815481529060010190602001808311610dd257829003601f168201915b505050505091505090565b600033610e0881858561290e565b60019150505b92915050565b610e1c6128b3565b6001546040516353ed639960e01b81526001600160a01b03909116906353ed639990610e50908690869086906004016149f5565b600060405180830381600087803b158015610e6a57600080fd5b505af1158015610e7e573d6000803e3d6000fd5b50505050505050565b7ff0c57e16840df040f15088dc2f81fe391c3923bec73e23a9662efc9c229c6a008054600160401b810460ff16159067ffffffffffffffff16600081158015610ecd5750825b905060008267ffffffffffffffff166001148015610eea5750303b155b905081158015610ef8575080155b15610f165760405163f92ee8a960e01b815260040160405180910390fd5b845467ffffffffffffffff191660011785558315610f4057845460ff60401b1916600160401b1785555b610f8d6040518060400160405280600e81526020016d7644656c656761746564564f543360901b8152506040518060400160405280600581526020016476564f543360d81b815250612920565b610f95612932565b610f9d61293a565b610fa68a61294a565b610fd56040518060400160405280600e81526020016d7644656c656761746564564f543360901b81525061295b565b610fdd612932565b610fe5612932565b600080546001600160a01b03808c166001600160a01b031992831617909255600180548a84169083161790556002805489841690831617905560038054928b1692909116919091179055831561107557845460ff60401b19168555604051600181527fc7f505b2f371ae2175ee4913f4499e1f2633a7b5936321eed1cdaeb6115181d29060200160405180910390a15b50505050505050505050565b60003361108f858285612986565b61109a8585856129ec565b60019150505b9392505050565b6001546040516368377f6d60e11b81526004810183905260009182916001600160a01b039091169063d06efeda90602401602060405180830381865afa1580156110f5573d6000803e3d6000fd5b505050506040513d601f19601f820116820180604052508101906111199190614a4c565b90506110a081611b28565b6000828152600760205260408120548082036111ae57600254604051628f33d760e01b8152600481018690523060248201526001600160a01b0390911690628f33d790604401602060405180830381865afa158015611187573d6000803e3d6000fd5b505050506040513d601f19601f820116820180604052508101906111ab9190614a4c565b90505b806000036111c0576000915050610e0e565b60006111cb856110a7565b9050806000036111e057600092505050610e0e565b60006111ec858761195b565b9050806000036112025760009350505050610e0e565b600061120f836064614a7b565b6112198584614a7b565b61122490605a614a7b565b61122e9190614aa8565b979650505050505050565b611241612a4b565b8061124b33611916565b10156112725760405162461bcd60e51b815260040161126990614aca565b60405180910390fd5b33600081815260096020526040902054829161128d90611916565b6112979190614af8565b10156112b55760405162461bcd60e51b815260040161126990614aca565b6112bf3382612a7c565b60005460405163a9059cbb60e01b8152336004820152602481018390526001600160a01b039091169063a9059cbb906044016020604051808303816000875af1158015611310573d6000803e3d6000fd5b505050506040513d601f19601f820116820180604052508101906113349190614b0b565b506000546040516317066a5760e21b81523060048201526001600160a01b0390911690635c19a95c90602401600060405180830381600087803b15801561137a57600080fd5b505af115801561138e573d6000803e3d6000fd5b505060005460408051338152602081018690526001600160a01b03909216908201527fcfa4194fdcc3b6788acd286f6aba184ad546e671f3400755f445389d2cd1daa4925060600190505b60405180910390a150565b6113ec6128b3565b6003546040516370a0823160e01b815230600482015282916001600160a01b0316906370a0823190602401602060405180830381865afa158015611434573d6000803e3d6000fd5b505050506040513d601f19601f820116820180604052508101906114589190614a4c565b10156114765760405162461bcd60e51b815260040161126990614aca565b8060085410156114985760405162461bcd60e51b815260040161126990614aca565b806008546114a69190614af8565b60085560035460405163a9059cbb60e01b8152336004820152602481018390526001600160a01b039091169063a9059cbb906044016020604051808303816000875af11580156114fa573d6000803e3d6000fd5b505050506040513d601f19601f8201168201806040525081019061151e9190614b0b565b5050565b600061152c612ab2565b905090565b6000600080516020614d1c8339815191528161154b611ba4565b90508065ffffffffffff16841061158657604051637669fc0f60e11b81526004810185905265ffffffffffff82166024820152604401611269565b6115b261159285612abc565b6001600160a01b0387166000908152600185016020526040902090612af3565b6001600160d01b031695945050505050565b6115cc6128b3565b6115d4612ba8565b565b6115e03382612a7c565b50565b60606115ed612c02565b65ffffffffffff166115fd611ba4565b65ffffffffffff1614611623576040516301bfc1c560e61b815260040160405180910390fd5b5060408051808201909152601d81527f6d6f64653d626c6f636b6e756d6265722666726f6d3d64656661756c74000000602082015290565b611663612c0d565b61166c82612cb2565b61151e8282612cba565b6000611680612d77565b50600080516020614d7c83398151915290565b6001600160a01b039081166000908152600080516020614d1c83398151915260205260409020541690565b6116c66128b3565b600680546001600160a01b0319166001600160a01b0392909216919091179055565b3361151e8183612dc0565b6116fb612a4b565b8061170533611916565b10156117235760405162461bcd60e51b815260040161126990614aca565b336000908152600960205260409020548111156117825760405162461bcd60e51b815260206004820152601960248201527f496e73756666696369656e7420423354522062616c616e6365000000000000006044820152606401611269565b3360009081526009602052604090205461179d908290614af8565b336000818152600960205260409020919091556117ba9082612a7c565b6117c381612e4a565b60035460405163a9059cbb60e01b8152336004820152602481018390526001600160a01b039091169063a9059cbb906044016020604051808303816000875af1158015611814573d6000803e3d6000fd5b505050506040513d601f19601f820116820180604052508101906118389190614b0b565b506000546040516317066a5760e21b81523060048201526001600160a01b0390911690635c19a95c90602401600060405180830381600087803b15801561187e57600080fd5b505af1158015611892573d6000803e3d6000fd5b505060035460408051338152602081018690526001600160a01b03909216908201527fcfa4194fdcc3b6788acd286f6aba184ad546e671f3400755f445389d2cd1daa4925060600190506113d9565b6118e96128b3565b600280546001600160a01b0319166001600160a01b0392909216919091179055565b6000610e0e82612e7b565b600080600080516020614d3c8339815191525b6001600160a01b0390931660009081526020939093525050604090205490565b6119516128b3565b6115d46000612ecc565b6001546040516368377f6d60e11b81526004810183905260009182916001600160a01b039091169063d06efeda90602401602060405180830381865afa1580156119a9573d6000803e3d6000fd5b505050506040513d601f19601f820116820180604052508101906119cd9190614a4c565b90506119d98482611531565b949350505050565b6119ec823383612986565b61151e8282612a7c565b6000610e0e82612f3d565b611a096128b3565b6115d4612f48565b60006060808280808381600080516020614d5c8339815191528054909150158015611a3e57506001810154155b611a825760405162461bcd60e51b81526020600482015260156024820152741152540dcc4c8e88155b9a5b9a5d1a585b1a5e9959605a1b6044820152606401611269565b611a8a612f91565b611a92612fd0565b60408051600080825260208201909252600f60f81b9c939b5091995046985030975095509350915050565b611ac56128b3565b60065460405163382c8f6d60e21b81526001600160a01b0383811660048301529091169063e0b23db4906024015b600060405180830381600087803b158015611b0d57600080fd5b505af1158015611b21573d6000803e3d6000fd5b5050505050565b6000600080516020614d1c83398151915281611b42611ba4565b90508065ffffffffffff168410611b7d57604051637669fc0f60e11b81526004810185905265ffffffffffff82166024820152604401611269565b611b93611b8985612abc565b6002840190612af3565b6001600160d01b0316949350505050565b600061152c612c02565b611bb6612a4b565b6000546040516323b872dd60e01b81526001600160a01b03909116906323b872dd90611bea90339030908790600401614b2d565b6020604051808303816000875af1158015611c09573d6000803e3d6000fd5b505050506040513d601f19601f82011682018060405250810190611c2d9190614b0b565b50611c383383612fe8565b6000546040516317066a5760e21b81523060048201526001600160a01b0390911690635c19a95c90602401600060405180830381600087803b158015611c7d57600080fd5b505af1158015611c91573d6000803e3d6000fd5b5050600054604051600080516020614dbc8339815191529350611cc69250339186916001600160a01b03909116908690614b51565b60405180910390a15050565b7f52c63247e1f47db19d5ce0460030c497f067ca4cebf71ba98eeadabe20bace048054606091600080516020614d3c83398151915291610d76906149bb565b6001600160a01b03811660009081527fe8b26c30fad74198956032a3533d903385d56dd795af560196f9c78d4af40d0160205260408120600080516020614d1c83398151915290611d619061301e565b6001600160d01b03169392505050565b611d79612a4b565b6003546040516323b872dd60e01b81526001600160a01b03909116906323b872dd90611dad90339030908690600401614b2d565b6020604051808303816000875af1158015611dcc573d6000803e3d6000fd5b505050506040513d601f19601f82011682018060405250810190611df09190614b0b565b50611dfa81613057565b611e043382612fe8565b33600090815260096020526040902054611e1f908290614b7c565b33600090815260096020526040808220929092555490516317066a5760e21b81523060048201526001600160a01b0390911690635c19a95c90602401600060405180830381600087803b158015611e7557600080fd5b505af1158015611e89573d6000803e3d6000fd5b5050600354604051600080516020614dbc83398151915293506113d99250339185916001600160a01b0390911690600090614b51565b600033610e088185856129ec565b611ed56128b3565b600180546001600160a01b0319166001600160a01b0392909216919091179055565b611eff612a4b565b60008181526004602052604090205460ff16611f1e57611f1e81613102565b600081815260056020908152604080832033845290915290205460ff1615611f885760405162461bcd60e51b815260206004820152601e60248201527f52657761726420616c726561647920636c61696d6564206279207573657200006044820152606401611269565b600081815260076020526040902054611fd95760405162461bcd60e51b81526020600482015260136024820152724e6f2072657761726420617661696c61626c6560681b6044820152606401611269565b60008181526007602052604081205490611ff2836110a7565b90506000612000338561195b565b9050600061200f836064614a7b565b6120198584614a7b565b61202490605a614a7b565b61202e9190614aa8565b6003546040516370a0823160e01b815230600482015291925082916001600160a01b03909116906370a0823190602401602060405180830381865afa15801561207b573d6000803e3d6000fd5b505050506040513d601f19601f8201168201806040525081019061209f9190614a4c565b10156120e35760405162461bcd60e51b8152602060048201526013602482015272125b9cdd59999a58da595b9d081c995dd85c99606a1b6044820152606401611269565b600081116121335760405162461bcd60e51b815260206004820152601c60248201527f4e6f2072657761726420617661696c61626c6520666f722075736572000000006044820152606401611269565b61213e836064614a7b565b6121488584614a7b565b61215390600a614a7b565b61215d9190614aa8565b60085461216a9190614b7c565b600855600085815260056020908152604080832033808552925291829020805460ff19166001179055600354915163a9059cbb60e01b81526004810191909152602481018390526001600160a01b039091169063a9059cbb906044016020604051808303816000875af11580156121e5573d6000803e3d6000fd5b505050506040513d601f19601f820116820180604052508101906122099190614b0b565b50604080518681523360208201529081018290527f24b5efa61dd1cfc659205a97fb8ed868f3cb8c81922bab2b96423e5de1de2cb79060600160405180910390a15050505050565b8342111561227557604051632341d78760e11b815260048101859052602401611269565b604080517fe48329057bfd03d55e49b547132e39cffd9c1820ad7b9d4c5307691425d15adf60208201526001600160a01b0388169181019190915260608101869052608081018590526000906122ef906122e79060a001604051602081830303815290604052805190602001206132b2565b8585856132df565b90506122fb818761330d565b610e7e8188612dc0565b61230d6128b3565b60065460405163688a1f9d60e11b81526001600160a01b0383811660048301529091169063d1143f3a90602401611af3565b834211156123635760405163313c898160e11b815260048101859052602401611269565b60007f6e71edae12b1b97f4d1f60370fef10105fa2faae0126114a169c64845d6126c98888886123928c61334c565b6040805160208101969096526001600160a01b0394851690860152929091166060840152608083015260a082015260c0810186905260e00160405160208183030381529060405280519060200120905060006123ed826132b2565b905060006123fd828787876132df565b9050896001600160a01b0316816001600160a01b031614612444576040516325c0072360e11b81526001600160a01b0380831660048301528b166024820152604401611269565b6110758a8a8a61290e565b6124576128b3565b600380546001600160a01b0319166001600160a01b0392909216919091179055565b6001600160a01b0391821660009081527f52c63247e1f47db19d5ce0460030c497f067ca4cebf71ba98eeadabe20bace016020908152604080832093909416825291909152205490565b60008181526007602052604081205480820361254d57600254604051628f33d760e01b8152600481018590523060248201526001600160a01b0390911690628f33d790604401602060405180830381865afa158015612526573d6000803e3d6000fd5b505050506040513d601f19601f8201168201806040525081019061254a9190614a4c565b90505b8060000361255e5750600092915050565b6000612569846110a7565b90508060000361257d575060009392505050565b6000612589338661195b565b90508060000361259e57506000949350505050565b60006125ab836064614a7b565b6125b58584614a7b565b6125c090605a614a7b565b6125ca9190614aa8565b9695505050505050565b6125dc612a4b565b6000546040516323b872dd60e01b81526001600160a01b03909116906323b872dd9061261090339030908690600401614b2d565b6020604051808303816000875af115801561262f573d6000803e3d6000fd5b505050506040513d601f19601f820116820180604052508101906126539190614b0b565b5061265e3382612fe8565b6000546040516317066a5760e21b81523060048201526001600160a01b0390911690635c19a95c90602401600060405180830381600087803b1580156126a357600080fd5b505af11580156126b7573d6000803e3d6000fd5b505060008054604051600080516020614dbc83398151915294506113d99350339286926001600160a01b031691614b51565b60408051808201909152600080825260208201526110a0838361338e565b61270f6128b3565b6001600160a01b03811661273957604051631e4fbdf760e01b815260006004820152602401611269565b6115e081612ecc565b61274a612a4b565b6003546040516323b872dd60e01b81526001600160a01b03909116906323b872dd9061277e90339030908790600401614b2d565b6020604051808303816000875af115801561279d573d6000803e3d6000fd5b505050506040513d601f19601f820116820180604052508101906127c19190614b0b565b506127cb82613057565b6127d53383612fe8565b336000908152600960205260409020546127f0908390614b7c565b33600090815260096020526040808220929092555490516317066a5760e21b81523060048201526001600160a01b0390911690635c19a95c90602401600060405180830381600087803b15801561284657600080fd5b505af115801561285a573d6000803e3d6000fd5b5050600354604051600080516020614dbc8339815191529350611cc69250339186916001600160a01b03909116908690614b51565b6128976128b3565b6001600160a01b03909116600090815260096020526040902055565b336128e57f9016d09d72d40fdae2fd8ceac6b6234c7706214fd39c1cd1e609a0528c199300546001600160a01b031690565b6001600160a01b0316146115d45760405163118cdaa760e01b8152336004820152602401611269565b61291b83838360016133f1565b505050565b6129286134d8565b61151e8282613521565b6115d46134d8565b6129426134d8565b6115d4613572565b6129526134d8565b6115e081613593565b6129636134d8565b6115e081604051806040016040528060018152602001603160f81b81525061359b565b60006129928484612479565b905060001981146129e657818110156129d757604051637dc7a0d960e11b81526001600160a01b03841660048201526024810182905260448101839052606401611269565b6129e6848484840360006133f1565b50505050565b6001600160a01b038316612a1657604051634b637e8f60e11b815260006004820152602401611269565b6001600160a01b038216612a405760405163ec442f0560e01b815260006004820152602401611269565b61291b8383836135fc565b600080516020614d9c8339815191525460ff16156115d45760405163d93c066560e01b815260040160405180910390fd5b6001600160a01b038216612aa657604051634b637e8f60e11b815260006004820152602401611269565b61151e826000836135fc565b600061152c613675565b600065ffffffffffff821115612aef576040516306dfcc6560e41b81526030600482015260248101839052604401611269565b5090565b815460009081816005811115612b52576000612b0e846136e9565b612b189085614af8565b60008881526020902090915081015465ffffffffffff9081169087161015612b4257809150612b50565b612b4d816001614b7c565b92505b505b6000612b60878785856137d1565b90508015612b9b57612b8587612b77600184614af8565b600091825260209091200190565b54600160301b90046001600160d01b031661122e565b6000979650505050505050565b612bb0613833565b600080516020614d9c833981519152805460ff191681557f5db9ee0a495bf2e6ff9c91a7834c1ba4fdd244a5e8aa4e537bd38aeae4b073aa335b6040516001600160a01b0390911681526020016113d9565b600061152c43612abc565b306001600160a01b037f0000000000000000000000000000000000000000000000000000000000000000161480612c9457507f00000000000000000000000000000000000000000000000000000000000000006001600160a01b0316612c88600080516020614d7c833981519152546001600160a01b031690565b6001600160a01b031614155b156115d45760405163703e46dd60e11b815260040160405180910390fd5b6115e06128b3565b816001600160a01b03166352d1902d6040518163ffffffff1660e01b8152600401602060405180830381865afa925050508015612d14575060408051601f3d908101601f19168201909252612d1191810190614a4c565b60015b612d3c57604051634c9c8ce360e01b81526001600160a01b0383166004820152602401611269565b600080516020614d7c8339815191528114612d6d57604051632a87526960e21b815260048101829052602401611269565b61291b8383613863565b306001600160a01b037f000000000000000000000000000000000000000000000000000000000000000016146115d45760405163703e46dd60e11b815260040160405180910390fd5b600080516020614d1c8339815191526000612dda84611693565b6001600160a01b0385811660008181526020869052604080822080546001600160a01b031916898616908117909155905194955093928516927f3134e8a2e6d97e929a7e54011ea5485d7d196dd5f0ba4d4ef95803e8e3fc257f9190a46129e68184612e45876138b9565b6138c4565b600054604051639ae05c3560e01b8152600481018390526001600160a01b0390911690639ae05c3590602401611af3565b6001600160a01b03811660009081527fe8b26c30fad74198956032a3533d903385d56dd795af560196f9c78d4af40d016020526040812054600080516020614d1c833981519152906110a090613a3e565b7f9016d09d72d40fdae2fd8ceac6b6234c7706214fd39c1cd1e609a0528c19930080546001600160a01b031981166001600160a01b03848116918217845560405192169182907f8be0079c531659141344cd1fd0a4f28419497f9722a3daafe3b4186f6b6457e090600090a3505050565b6000610e0e82613a6f565b612f50612a4b565b600080516020614d9c833981519152805460ff191660011781557f62e78cea01bee320cd4e420270b5ea74000d11b0c9f74754ebdbfc544b05a25833612bea565b7fa16a46d94261c7517cc8ff89f61c0ce93598e3c849801011dee649a6a557d1028054606091600080516020614d5c83398151915291610d76906149bb565b60606000600080516020614d5c833981519152610d65565b6001600160a01b0382166130125760405163ec442f0560e01b815260006004820152602401611269565b61151e600083836135fc565b8054600090801561304e5761303883612b77600184614af8565b54600160301b90046001600160d01b03166110a0565b60009392505050565b60035460005460405163095ea7b360e01b81526001600160a01b0391821660048201526024810184905291169063095ea7b3906044016020604051808303816000875af11580156130ac573d6000803e3d6000fd5b505050506040513d601f19601f820116820180604052508101906130d09190614b0b565b50600054604051630711942d60e51b8152600481018390526001600160a01b039091169063e23285a090602401611af3565b60008181526004602052604090205460ff161561315a5760405162461bcd60e51b815260206004820152601660248201527514995dd85c9908185b1c9958591e4818db185a5b595960521b6044820152606401611269565b600081815260076020526040902054156131af5760405162461bcd60e51b815260206004820152601660248201527514995dd85c9908185b1c9958591e4818db185a5b595960521b6044820152606401611269565b600254604051628f33d760e01b8152600481018390523060248201526001600160a01b0390911690628f33d790604401602060405180830381865afa1580156131fc573d6000803e3d6000fd5b505050506040513d601f19601f820116820180604052508101906132209190614a4c565b6000828152600760205260409081902091909155600254905163738759c960e11b8152600481018390523060248201526001600160a01b039091169063e70eb39290604401600060405180830381600087803b15801561327f57600080fd5b505af1158015613293573d6000803e3d6000fd5b505050600091825250600460205260409020805460ff19166001179055565b6000610e0e6132bf612ab2565b8360405161190160f01b8152600281019290925260228201526042902090565b6000806000806132f188888888613a98565b9250925092506133018282613b67565b50909695505050505050565b60006133188361334c565b905080821461291b576040516301d4b62360e61b81526001600160a01b038416600482015260248101829052604401611269565b6001600160a01b031660009081527f5ab42ced628888259c08ac98db1eb0cf702fc1501344311d8b100cd1bfe4bb006020526040902080546001810190915590565b604080518082018252600080825260208083018290526001600160a01b03861682527fe8b26c30fad74198956032a3533d903385d56dd795af560196f9c78d4af40d01905291909120600080516020614d1c833981519152906119d99084613c20565b600080516020614d3c8339815191526001600160a01b03851661342a5760405163e602df0560e01b815260006004820152602401611269565b6001600160a01b03841661345457604051634a1406b160e11b815260006004820152602401611269565b6001600160a01b03808616600090815260018301602090815260408083209388168352929052208390558115611b2157836001600160a01b0316856001600160a01b03167f8c5be1e5ebec7d5bd14f71427d1e84f3dd0314c0f7b2291e5b200ac8c7c3b925856040516134c991815260200190565b60405180910390a35050505050565b7ff0c57e16840df040f15088dc2f81fe391c3923bec73e23a9662efc9c229c6a0054600160401b900460ff166115d457604051631afcd79f60e31b815260040160405180910390fd5b6135296134d8565b600080516020614d3c8339815191527f52c63247e1f47db19d5ce0460030c497f067ca4cebf71ba98eeadabe20bace036135638482614bd6565b50600481016129e68382614bd6565b61357a6134d8565b600080516020614d9c833981519152805460ff19169055565b61270f6134d8565b6135a36134d8565b600080516020614d5c8339815191527fa16a46d94261c7517cc8ff89f61c0ce93598e3c849801011dee649a6a557d1026135dd8482614bd6565b50600381016135ec8382614bd6565b5060008082556001909101555050565b6001600160a01b0383161580159061361c57506001600160a01b03821615155b156136605760405162461bcd60e51b8152602060048201526014602482015273151c985b9cd9995c881b9bdd08185b1b1bddd95960621b6044820152606401611269565b61366b838383613c90565b61291b8283612dc0565b60007f8b73c3c69bb8fe3d512ecc4cf759cc79239f7b179b0ffacaa9a75d522b39400f6136a0613d16565b6136a8613d80565b60408051602081019490945283019190915260608201524660808201523060a082015260c00160405160208183030381529060405280519060200120905090565b6000816000036136fb57506000919050565b6000600161370884613dc4565b901c6001901b9050600181848161372157613721614a92565b048201901c9050600181848161373957613739614a92565b048201901c9050600181848161375157613751614a92565b048201901c9050600181848161376957613769614a92565b048201901c9050600181848161378157613781614a92565b048201901c9050600181848161379957613799614a92565b048201901c905060018184816137b1576137b1614a92565b048201901c90506110a0818285816137cb576137cb614a92565b04613e58565b60005b8183101561382b5760006137e88484613e6e565b60008781526020902090915065ffffffffffff86169082015465ffffffffffff16111561381757809250613825565b613822816001614b7c565b93505b506137d4565b509392505050565b600080516020614d9c8339815191525460ff166115d457604051638dfc202b60e01b815260040160405180910390fd5b61386c82613e89565b6040516001600160a01b038316907fbc7cd75a20ee27fd9adebab32041f755214dbc6bffa90cc0225b39da2e5c2d3b90600090a28051156138b15761291b8282613eee565b61151e613f64565b6000610e0e82611916565b600080516020614d1c8339815191526001600160a01b03848116908416148015906138ef5750600082115b156129e6576001600160a01b03841615613999576001600160a01b03841660009081526001820160205260408120819061393490613f8361392f87613f8f565b613fc3565b6001600160d01b031691506001600160d01b03169150856001600160a01b03167fdec2bacdd2f05b59de34da9b523dff8be42e5e38e818c82fdb0bae774387a724838360405161398e929190918252602082015260400190565b60405180910390a250505b6001600160a01b038316156129e6576001600160a01b0383166000908152600182016020526040812081906139d490613ffc61392f87613f8f565b6001600160d01b031691506001600160d01b03169150846001600160a01b03167fdec2bacdd2f05b59de34da9b523dff8be42e5e38e818c82fdb0bae774387a7248383604051613a2e929190918252602082015260400190565b60405180910390a2505050505050565b600063ffffffff821115612aef576040516306dfcc6560e41b81526020600482015260248101839052604401611269565b6000807f5ab42ced628888259c08ac98db1eb0cf702fc1501344311d8b100cd1bfe4bb00611929565b600080807f7fffffffffffffffffffffffffffffff5d576e7357a4501ddfe92f46681b20a0841115613ad35750600091506003905082613b5d565b604080516000808252602082018084528a905260ff891692820192909252606081018790526080810186905260019060a0016020604051602081039080840390855afa158015613b27573d6000803e3d6000fd5b5050604051601f1901519150506001600160a01b038116613b5357506000925060019150829050613b5d565b9250600091508190505b9450945094915050565b6000826003811115613b7b57613b7b614c95565b03613b84575050565b6001826003811115613b9857613b98614c95565b03613bb65760405163f645eedf60e01b815260040160405180910390fd5b6002826003811115613bca57613bca614c95565b03613beb5760405163fce698f760e01b815260048101829052602401611269565b6003826003811115613bff57613bff614c95565b0361151e576040516335e2f38360e21b815260048101829052602401611269565b6040805180820190915260008082526020820152826000018263ffffffff1681548110613c4f57613c4f614cab565b60009182526020918290206040805180820190915291015465ffffffffffff81168252600160301b90046001600160d01b0316918101919091529392505050565b613c9b838383614008565b6001600160a01b038316613d0b576000613cd37f52c63247e1f47db19d5ce0460030c497f067ca4cebf71ba98eeadabe20bace025490565b90506001600160d01b0380821115613d0857604051630e58ae9360e11b81526004810183905260248101829052604401611269565b50505b61291b83838361401b565b6000600080516020614d5c83398151915281613d30612f91565b805190915015613d4857805160209091012092915050565b81548015613d57579392505050565b7fc5d2460186f7233c927e7db2dcc703c0e500b653ca82273b7bfad8045d85a470935050505090565b6000600080516020614d5c83398151915281613d9a612fd0565b805190915015613db257805160209091012092915050565b60018201548015613d57579392505050565b600080608083901c15613dd957608092831c92015b604083901c15613deb57604092831c92015b602083901c15613dfd57602092831c92015b601083901c15613e0f57601092831c92015b600883901c15613e2157600892831c92015b600483901c15613e3357600492831c92015b600283901c15613e4557600292831c92015b600183901c15610e0e5760010192915050565b6000818310613e6757816110a0565b5090919050565b6000613e7d6002848418614aa8565b6110a090848416614b7c565b806001600160a01b03163b600003613ebf57604051634c9c8ce360e01b81526001600160a01b0382166004820152602401611269565b600080516020614d7c83398151915280546001600160a01b0319166001600160a01b0392909216919091179055565b6060600080846001600160a01b031684604051613f0b9190614cc1565b600060405180830381855af49150503d8060008114613f46576040519150601f19603f3d011682016040523d82523d6000602084013e613f4b565b606091505b5091509150613f5b85838361408d565b95945050505050565b34156115d45760405163b398979f60e01b815260040160405180910390fd5b60006110a08284614cdd565b60006001600160d01b03821115612aef576040516306dfcc6560e41b815260d0600482015260248101839052604401611269565b600080613fef613fd1611ba4565b613fe7613fdd8861301e565b868863ffffffff16565b8791906140e9565b915091505b935093915050565b60006110a08284614cfc565b614010612a4b565b61291b8383836140f7565b600080516020614d1c8339815191526001600160a01b03841661404e5761404b81600201613ffc61392f85613f8f565b50505b6001600160a01b0383166140725761406f81600201613f8361392f85613f8f565b50505b6129e661407e85611693565b61408785611693565b846138c4565b6060826140a25761409d82614235565b6110a0565b81511580156140b957506001600160a01b0384163b155b156140e257604051639996b31560e01b81526001600160a01b0385166004820152602401611269565b50806110a0565b600080613fef85858561425e565b600080516020614d3c8339815191526001600160a01b03841661413357818160020160008282546141289190614b7c565b909155506141a59050565b6001600160a01b038416600090815260208290526040902054828110156141865760405163391434e360e21b81526001600160a01b03861660048201526024810182905260448101849052606401611269565b6001600160a01b03851660009081526020839052604090209083900390555b6001600160a01b0383166141c35760028101805483900390556141e2565b6001600160a01b03831660009081526020829052604090208054830190555b826001600160a01b0316846001600160a01b03167fddf252ad1be2c89b69c2b068fc378daa952ba7f163c4a11628f55a4df523b3ef8460405161422791815260200190565b60405180910390a350505050565b8051156142455780518082602001fd5b604051630a12f52160e11b815260040160405180910390fd5b82546000908190801561437d57600061427c87612b77600185614af8565b60408051808201909152905465ffffffffffff808216808452600160301b9092046001600160d01b0316602084015291925090871610156142d057604051632520601d60e01b815260040160405180910390fd5b805165ffffffffffff80881691160361431c57846142f388612b77600186614af8565b80546001600160d01b0392909216600160301b0265ffffffffffff90921691909117905561436d565b6040805180820190915265ffffffffffff80881682526001600160d01b0380881660208085019182528b54600181018d5560008d81529190912094519151909216600160301b029216919091179101555b602001519250839150613ff49050565b50506040805180820190915265ffffffffffff80851682526001600160d01b0380851660208085019182528854600181018a5560008a815291822095519251909316600160301b029190931617920191909155905081613ff4565b80356001600160a01b03811681146143ef57600080fd5b919050565b60006020828403121561440657600080fd5b6110a0826143d8565b60005b8381101561442a578181015183820152602001614412565b50506000910152565b6000815180845261444b81602086016020860161440f565b601f01601f19169290920160200192915050565b6020815260006110a06020830184614433565b6000806040838503121561448557600080fd5b61448e836143d8565b946020939093013593505050565b634e487b7160e01b600052604160045260246000fd5b604051601f8201601f1916810167ffffffffffffffff811182821017156144db576144db61449c565b604052919050565b600067ffffffffffffffff8211156144fd576144fd61449c565b5060051b60200190565b600082601f83011261451857600080fd5b813561452b614526826144e3565b6144b2565b8082825260208201915060208360051b86010192508583111561454d57600080fd5b602085015b8381101561456a578035835260209283019201614552565b5095945050505050565b60008060006060848603121561458957600080fd5b83359250602084013567ffffffffffffffff8111156145a757600080fd5b8401601f810186136145b857600080fd5b80356145c6614526826144e3565b8082825260208201915060208360051b8501019250888311156145e857600080fd5b6020840193505b8284101561460a5783358252602093840193909101906145ef565b9450505050604084013567ffffffffffffffff81111561462957600080fd5b61463586828701614507565b9150509250925092565b600080600080600060a0868803121561465757600080fd5b614660866143d8565b945061466e602087016143d8565b935061467c604087016143d8565b925061468a606087016143d8565b9150614698608087016143d8565b90509295509295909350565b6000806000606084860312156146b957600080fd5b6146c2846143d8565b92506146d0602085016143d8565b929592945050506040919091013590565b6000602082840312156146f357600080fd5b5035919050565b6000806040838503121561470d57600080fd5b8235915061471d602084016143d8565b90509250929050565b6000806040838503121561473957600080fd5b614742836143d8565b9150602083013567ffffffffffffffff81111561475e57600080fd5b8301601f8101851361476f57600080fd5b803567ffffffffffffffff8111156147895761478961449c565b61479c601f8201601f19166020016144b2565b8181528660208385010111156147b157600080fd5b816020840160208301376000602083830101528093505050509250929050565b600081518084526020840193506020830160005b828110156148035781518652602095860195909101906001016147e5565b5093949350505050565b60ff60f81b8816815260e06020820152600061482c60e0830189614433565b828103604084015261483e8189614433565b606084018890526001600160a01b038716608085015260a0840186905283810360c0850152905061486f81856147d1565b9a9950505050505050505050565b803560ff811681146143ef57600080fd5b60008060008060008060c087890312156148a757600080fd5b6148b0876143d8565b955060208701359450604087013593506148cc6060880161487d565b9598949750929560808101359460a0909101359350915050565b600080600080600080600060e0888a03121561490157600080fd5b61490a886143d8565b9650614918602089016143d8565b955060408801359450606088013593506149346080890161487d565b9699959850939692959460a0840135945060c09093013592915050565b6000806040838503121561496457600080fd5b61496d836143d8565b915061471d602084016143d8565b6000806040838503121561498e57600080fd5b614997836143d8565b9150602083013563ffffffff811681146149b057600080fd5b809150509250929050565b600181811c908216806149cf57607f821691505b6020821081036149ef57634e487b7160e01b600052602260045260246000fd5b50919050565b6000606082018583526060602084015280855180835260808501915060208701925060005b81811015614a38578351835260209384019390920191600101614a1a565b5050838103604085015261122e81866147d1565b600060208284031215614a5e57600080fd5b5051919050565b634e487b7160e01b600052601160045260246000fd5b8082028115828204841417610e0e57610e0e614a65565b634e487b7160e01b600052601260045260246000fd5b600082614ac557634e487b7160e01b600052601260045260246000fd5b500490565b602080825260149082015273496e73756666696369656e742062616c616e636560601b604082015260600190565b81810381811115610e0e57610e0e614a65565b600060208284031215614b1d57600080fd5b815180151581146110a057600080fd5b6001600160a01b039384168152919092166020820152604081019190915260600190565b6001600160a01b03948516815260208101939093529083166040830152909116606082015260800190565b80820180821115610e0e57610e0e614a65565b601f82111561291b57806000526020600020601f840160051c81016020851015614bb65750805b601f840160051c820191505b81811015611b215760008155600101614bc2565b815167ffffffffffffffff811115614bf057614bf061449c565b614c0481614bfe84546149bb565b84614b8f565b6020601f821160018114614c385760008315614c205750848201515b600019600385901b1c1916600184901b178455611b21565b600084815260208120601f198516915b82811015614c685787850151825560209485019460019092019101614c48565b5084821015614c865786840151600019600387901b60f8161c191681555b50505050600190811b01905550565b634e487b7160e01b600052602160045260246000fd5b634e487b7160e01b600052603260045260246000fd5b60008251614cd381846020870161440f565b9190910192915050565b6001600160d01b038281168282160390811115610e0e57610e0e614a65565b6001600160d01b038181168382160190811115610e0e57610e0e614a6556fee8b26c30fad74198956032a3533d903385d56dd795af560196f9c78d4af40d0052c63247e1f47db19d5ce0460030c497f067ca4cebf71ba98eeadabe20bace00a16a46d94261c7517cc8ff89f61c0ce93598e3c849801011dee649a6a557d100360894a13ba1a3210667c828492db98dca3e2076cc3735a920a3ca505d382bbccd5ed15c6e187e77e9aee88184c21f4f2182ab5827cb3b7e07fbedcd63f03300173a41446139a2f46e5b55dfe67fc961bc4e18c0eef90f3dc6b9fbb7302c17e2a264697066735822122030b2f2eeab85910cf66daa0950c350088369f80039783001d1ae69022b6db39364736f6c634300081b0033",
  "linkReferences": {},
  "deployedLinkReferences": {}
}